:0400000080EF03F09A
:100600000000000E936E9280000E816E8080000EBE
:10061000816E4E0E016EEB0EE82EFED7012EFCD73A
:10062000000080B016EF03F018EF03F007EF03F0BF
:100630004E0E016EEB0EE82EFED7012EFCD7000009
:10064000000E046E000E036E04BE30EF03F0045083
:1006500009E1080E035CD8A030EF03F032EF03F09D
:1006600034EF03F052EF03F003C001F0010E026E0D
:10067000012A3DEF03F0D8900236012E3BEF03F044
:100680000250816E0D0E026EAF0E016EB60EE82E98
:10069000FED7012EFCD7022EFAD700D0034A042A37
:1006A00024EF03F0000E066E060E056E06BE5DEF2B
:1006B00003F05BEF03F05FEF03F007EF03F005C01B
:1006C00001F0010E026E012A68EF03F0D8900236A5
:1006D000012E66EF03F00250816E0D0E026EAF0E1A
:1006E000016EB60EE82EFED7012EFCD7022EFAD7E9
:1006F00000D00506D8A0060656EF03F000EF00F084
:06070000000101EF03F00F
:020000040030CA
:0E000000FF071F1EFF8385FF0FC00FE00F409C
:00000001FF
