:04000000BFEF05F059
:0B0600000057494C4C49414E5300008C
:10060C000A6E95949598959A959C959E9592959031
:10061C000AB002D0839001D0838003B002D08392C1
:10062C0001D0838203500410D8A41FEF03F021EFF4
:10063C0003F09CEF03F0086A05AE01D0082A0846C7
:10064C00084683500818FB0B0818836E05C008F089
:10065C00060E096ED8900832092E30EF03F0083AD6
:10066C0083500818EF0B0818836E05C008F0050EB0
:10067C00096ED8900832092E3FEF03F0083A08466D
:10068C0083500818DF0B0818836E05C008F0083A71
:10069C000F0E0816083A0846084683500818BF0B78
:1006AC000818836E838E000E026E020E016ED4EC5F
:1006BC0005F0839E05C008F0D8900832D890083217
:1006CC00D89008320846084683500818FB0B0818C7
:1006DC00836E05C008F0D8900832D8900832083ADA
:1006EC0083500818EF0B0818836E05C008F0D890DB
:1006FC000832083A084683500818DF0B0818836E36
:10070C0005B002D0839C01D0838C838E000E026EC8
:10071C00020E016ED4EC05F0839E06C001F007C0FA
:10072C0002F0D4EC05F0000E1DEF04F095849588D2
:10073C00958A958C838E000E026E020E016ED4EC9F
:10074C0005F0000E83B4010E0B6E83B8B0EF03F00E
:10075C00B4EF03F0086A082AB5EF03F0086A0B50EF
:10076C000B2408100B6E83BABEEF03F0C2EF03F03C
:10077C00086A082AC3EF03F0086A0B500B24081010
:10078C000B6E83BCCCEF03F0D0EF03F0086A082AA1
:10079C00D1EF03F0086A0B500B2408100B6E839EEC
:1007AC00838E000E026E020E016ED4EC05F083B443
:1007BC00E2EF03F0E6EF03F0086A082AE7EF03F034
:1007CC00086A0B500B2408100B6E83B8F0EF03F083
:1007DC00F4EF03F0086A082AF5EF03F0086A0B50EF
:1007EC000B2408100B6E83BAFEEF03F002EF04F03B
:1007FC00086A082A03EF04F0086A0B500B2408104F
:10080C000B6E83BC0CEF04F010EF04F0086A082A9E
:10081C0011EF04F0086A0B500B2408100B6E839E2A
:10082C0006C001F007C002F0D4EC05F00B5012002A
:10083C000F6E20EE18F010EE10F0050EDBCFE3FF7C
:10084C00E806FCE20FC012F00CC013F00DC014F05F
:10085C0095949598959A959C959E95929590839044
:10086C008392839E4E0E026E200E016ED4EC05F028
:10087C00000E166E10C00EF0D8900E32D8900E32BC
:10088C00D8900E320E460E4683500E18FB0B0E18E7
:10089C00836E10C00EF0D8900E32D8900E320E3AF5
:1008AC0083500E18EF0B0E18836E10C00EF0D890FC
:1008BC000E320E3A0E4683500E18DF0B0E18836E56
:1008CC0010B002D0839C01D0838C838E000E026EFC
:1008DC00020E016ED4EC05F0839E130E026E880E90
:1008EC00016ED4EC05F0162A020E166480EF04F0AB
:1008FC0082EF04F040EF04F011C00EF0D8900E32ED
:10090C00D8900E32D8900E320E460E4683500E18EA
:10091C00FB0B0E18836E11C00EF0D8900E32D890CF
:10092C000E320E3A83500E18EF0B0E18836E11C058
:10093C000EF0D8900E320E3A0E4683500E18DF0B86
:10094C000E18836E11B002D0839C01D0838C838EE1
:10095C00000E026E020E016ED4EC05F0839E000EAA
:10096C00026E280E016ED4EC05F0000E046E000E23
:10097C00036E12C005F0000E076E280E066E000EF8
:10098C0006EC03F0000E046E000E036E13C005F0AF
:10099C00000E076E280E066E000E06EC03F0000E1D
:1009AC00046E000E036E14C005F0000E076E280EC8
:1009BC00066E000E06EC03F0F3EC05F012000F6E61
:1009CC0028EF05F0000E046E000E036E0C507F0F26
:1009DC00056E000E076E280E066E000E06EC03F078
:1009EC0045EF05F0000E046E000E036E0C50BF0FA9
:1009FC00056E000E076E280E066E000E06EC03F058
:100A0C0045EF05F0000E046E000E036E0C50930FB4
:100A1C00056E000E076E280E066E000E06EC03F037
:100A2C0045EF05F0000E046E000E036E0C50D30F54
:100A3C00056E000E076E280E066E000E06EC03F017
:100A4C0045EF05F00F500D6E0E6A0E50000AD8B42B
:100A5C0032EF05F045EF05F00D50010AD8B4E8EF80
:100A6C0004F0030AD8B4F8EF04F0010AD8B408EF84
:100A7C0005F0070AD8B418EF05F045EF05F01200A1
:100A8C00000E956E000E836E030E926E030E806E3A
:100A9C000F0E0C6E060E0D6E280E1EEC04F0050EDD
:100AAC000C6E010EE5EC04F0010E0D6E8EEC05F0F3
:100ABC009C0E176ED70EE82EFED7172EFCD7000013
:100ACC0080B06BEF05F06DEF05F078EF05F0000EE0
:100ADC00A8EC05F09C0E176ED70EE82EFED7172E3D
:100AEC00FCD7000080B27DEF05F07FEF05F055EFED
:100AFC0005F0010EA8EC05F09C0E176ED70EE82E33
:100B0C00FED7172EFCD7000055EF05F000EF00F0D4
:100B1C0099EF05F00DC0F6FF060EF76E0800F550C4
:100B2C00E4EC05F00D2A0DC0F6FF060EF76E08007A
:100B3C00F5500009D8A4A5EF05F0A7EF05F090EF4C
:100B4C0005F012000E6E23C00CF024C00DF0000E48
:100B5C00046E000E036E0E500C0FD96EDA6ADF5065
:100B6C00056E000E076E280E066E000E06EC03F0E6
:100B7C001200020EF66E0C0EF76E000EF86E00EE02
:100B8C0018F010EE0FF00900F5CFEEFFE550E15034
:100B9C00FAE1000EF86E000146EF05F0040EE82EA7
:100BAC00FED70106D8A0020601500210D8A4E1EF2E
:100BBC0005F0E3EF05F0D4EF05F012000C6E000E1B
:100BCC00046E000E036E0CC005F0000E076E2D0EA9
:100BDC00066E010E06EC03F01200000E046E000E01
:100BEC00036E010E056E070E076ED00E066E000E1C
:100BFC0006EC03F012000302000000000C080F0EBC
:050C0C000D1C1814107E
:020000040030CA
:0E000000FF071F1EFF8385FF0FC00FE00F409C
:00000001FF
