:0400000057EF06F0C0
:0706000000494653500000C1
:100608000A6E95949598959A959C959E9592959035
:100618000AB002D0839001D0838003B002D08392C5
:1006280001D0838203500410D8A41DEF03F01FEFFC
:1006380003F09AEF03F0086A05AE01D0082A0846CD
:10064800084683500818FB0B0818836E05C008F08D
:10065800060E096ED8900832092E2EEF03F0083ADC
:1006680083500818EF0B0818836E05C008F0050EB4
:10067800096ED8900832092E3DEF03F0083A084673
:1006880083500818DF0B0818836E05C008F0083A75
:100698000F0E0816083A0846084683500818BF0B7C
:1006A8000818836E838E000E026E020E016E6CECCB
:1006B80006F0839E05C008F0D8900832D89008321A
:1006C800D89008320846084683500818FB0B0818CB
:1006D800836E05C008F0D8900832D8900832083ADE
:1006E80083500818EF0B0818836E05C008F0D890DF
:1006F8000832083A084683500818DF0B0818836E3A
:1007080005B002D0839C01D0838C838E000E026ECC
:10071800020E016E6CEC06F0839E06C001F007C065
:1007280002F06CEC06F0000E1BEF04F0958495883F
:10073800958A958C838E000E026E020E016E6CEC0B
:1007480006F0000E83B4010E0B6E83B8AEEF03F013
:10075800B2EF03F0086A082AB3EF03F0086A0B50F7
:100768000B2408100B6E83BABCEF03F0C0EF03F044
:10077800086A082AC1EF03F0086A0B500B24081016
:100788000B6E83BCCAEF03F0CEEF03F0086A082AA9
:10079800CFEF03F0086A0B500B2408100B6E839EF2
:1007A800838E000E026E020E016E6CEC06F083B4AE
:1007B800E0EF03F0E4EF03F0086A082AE5EF03F03E
:1007C800086A0B500B2408100B6E83B8EEEF03F089
:1007D800F2EF03F0086A082AF3EF03F0086A0B50F7
:1007E8000B2408100B6E83BAFCEF03F000EF04F043
:1007F800086A082A01EF04F0086A0B500B24081055
:100808000B6E83BC0AEF04F00EEF04F0086A082AA6
:100818000FEF04F0086A0B500B2408100B6E839E30
:1008280006C001F007C002F06CEC06F00B50120095
:100838000F6E20EE19F010EE10F0050EDBCFE3FF7F
:10084800E806FCE20FC012F00CC013F00DC014F063
:1008580095949598959A959C959E95929590839048
:100868008392839E4E0E026E200E016E6CEC06F093
:10087800000E166E10C00EF0D8900E32D8900E32C0
:10088800D8900E320E460E4683500E18FB0B0E18EB
:10089800836E10C00EF0D8900E32D8900E320E3AF9
:1008A80083500E18EF0B0E18836E10C00EF0D89000
:1008B8000E320E3A0E4683500E18DF0B0E18836E5A
:1008C80010B002D0839C01D0838C838E000E026E00
:1008D800020E016E6CEC06F0839E130E026E880EFB
:1008E800016E6CEC06F0162A020E16647EEF04F018
:1008F80080EF04F03EEF04F011C00EF0D8900E32F5
:10090800D8900E32D8900E320E460E4683500E18EE
:10091800FB0B0E18836E11C00EF0D8900E32D890D3
:100928000E320E3A83500E18EF0B0E18836E11C05C
:100938000EF0D8900E320E3A0E4683500E18DF0B8A
:100948000E18836E11B002D0839C01D0838C838EE5
:10095800000E026E020E016E6CEC06F0839E000E15
:10096800026E280E016E6CEC06F0000E046E000E8E
:10097800036E12C005F0000E076E280E066E000EFC
:1009880004EC03F0000E046E000E036E13C005F0B5
:10099800000E076E280E066E000E04EC03F0000E23
:1009A800046E000E036E14C005F0000E076E280ECC
:1009B800066E000E04EC03F08BEC06F01200000E3D
:1009C800956E000E836E0F0E0C6E060E0D6E280EC1
:1009D8001CEC04F0010E0D6E060E0E6E0AEC06F00D
:1009E8003D0E186EE10E176E400EE82EFED7172E3C
:1009F800FCD7182EFAD7070E0C6E020E8BEC05F0FA
:100A0800500E7CEC06F0490E7CEC06F0430E7CECB4
:100A180006F03D0E186EE10E176E400EE82EFED75A
:100A2800172EFCD7182EFAD7010E25EC06F03D0E2E
:100A3800186EE10E176E400EE82EFED7172EFCD763
:100A4800182EFAD7000E25EC06F03D0E186EE10EB2
:100A5800176E400EE82EFED7172EFCD7182EFAD7A1
:100A6800000EECEC05F03D0E186EE10E176E400E10
:100A7800E82EFED7172EFCD7182EFAD7010EECEC6D
:100A880005F03D0E186EE10E176E400EE82EFED7EB
:100A9800172EFCD7182EFAD7020EECEC05F03D0EF7
:100AA800186EE10E176E400EE82EFED7172EFCD7F3
:100AB800182EFAD7000E3EEC06F03D0E186EE10E29
:100AC800176E400EE82EFED7172EFCD7182EFAD731
:100AD800010E3EEC06F03D0E186EE10E176E400E4C
:100AE800E82EFED7172EFCD7182EFAD78BEC06F077
:100AF8003D0E186EE10E176E400EE82EFED7172E2B
:100B0800FCD7182EFAD7EEEF04F000EF00F00F6EC6
:100B1800CEEF05F0000E046E000E036E0C507F0F32
:100B2800056E000E076E280E066E000E04EC03F02C
:100B3800EBEF05F0000E046E000E036E0C50BF0FB5
:100B4800056E000E076E280E066E000E04EC03F00C
:100B5800EBEF05F0000E046E000E036E0C50930FC1
:100B6800056E000E076E280E066E000E04EC03F0EC
:100B7800EBEF05F0000E046E000E036E0C50D30F61
:100B8800056E000E076E280E066E000E04EC03F0CC
:100B9800EBEF05F00F500D6E0E6A0E50000AD8B438
:100BA800D8EF05F0EBEF05F00D50010AD8B48EEF41
:100BB80005F0030AD8B49EEF05F0010AD8B4AEEFE9
:100BC80005F0070AD8B4BEEF05F0EBEF05F0120008
:100BD800116E20EE1FF010EE0CF0040EDBCFE3FFD9
:100BE800E806FCE2000E046E000E036E0C0E1124E3
:100BF800D96EDA6A000EDA22DF50056E000E076E33
:100C0800280E066E000E04EC03F0120016EF06F034
:100C18000DC0F6FF0EC0F7FF0800F5507CEC06F09B
:100C28000D4A0E2A0DC0F6FF0EC0F7FF0800F5505A
:100C38000009D8A422EF06F024EF06F00CEF06F026
:100C480012000E6E24C00CF025C00DF0000E046ECC
:100C5800000E036E0C0E0E24D96EDA6A000EDA222C
:100C6800DF50056E000E076E280E066E000E04ECAF
:100C780003F012000E6E26C00CF027C00DF0000E17
:100C8800046E000E036E0C0E0E24D96EDA6A000E86
:100C9800DA22DF50056E000E076E280E066E000E73
:100CA80004EC03F01200320EF66E0D0EF76E000E15
:100CB800F86E00EE19F010EE0FF00900F5CFEEFF18
:100CC800E550E150FAE1000EF86E0001E3EF04F0A0
:100CD800040EE82EFED70106D8A002060150021025
:100CE800D8A479EF06F07BEF06F06CEF06F012005F
:100CF8000C6E000E046E000E036E0CC005F0000EA4
:100D0800076E2D0E066E010E04EC03F01200000EA5
:100D1800046E000E036E010E056E070E076ED00EF0
:100D2800066E000E04EC03F012000302000000003F
:090D38000C080F0E0D1C1814101C
:020000040030CA
:0E000000FF071F1EFF8385FF0FC00FE00F409C
:00000001FF
