:0400000083EF03F097
:100600000000010E956E000E836E83B00AEF03F0BA
:100610000CEF03F01EEF03F083948386838A839CA0
:10062000839E030E026E8A0E016E560EE82EFED7D2
:10063000012EFCD7022EFAD705EF03F083948386B0
:10064000839A838C839E4D0E026E190E016E500E9E
:10065000E82EFED7012EFCD7022EFAD7838483968C
:10066000839A839C838E4D0E026E190E016E500E7E
:10067000E82EFED7012EFCD7022EFAD78394000E67
:10068000046E000E036E83A648EF03F04CEF03F0F8
:10069000016A012A4DEF03F0016A01460146014655
:1006A00083500118F70B0118836E030E026E8A0E39
:1006B000016E560EE82EFED7012EFCD7022EFAD779
:1006C000034A042A04BE6EEF03F0045009E1140E3D
:1006D000035CD8A06EEF03F070EF03F043EF03F07C
:1006E0008386838A839C839E4D0E026E190E016E53
:1006F000500EE82EFED7012EFCD7022EFAD705EFBA
:0C07000003F000EF00F0000101EF03F037
:020000040030CA
:0E000000FF071F1EFF8385FF0FC00FE00F409C
:00000001FF
