:04000000E7EF03F033
:1006000000009280000E936EE0EC03F0000EC0EC50
:1006100003F001C008F002C009F0095007E1810EA3
:10062000085CD8B016EF03F018EF03F01AEF03F0F0
:10063000010E816E095009E1810E085CD8A023EFFC
:1006400003F025EF03F031EF03F00804010E095821
:10065000D8B02DEF03F02FEF03F031EF03F0030ECE
:10066000816E0804010E0958D8A039EF03F03BEF62
:1006700003F048EF03F0810E085C010E0958D8B072
:1006800044EF03F046EF03F048EF03F0070E816EEE
:10069000810E085C010E0958D8A051EF03F053EF0A
:1006A00003F05FEF03F00804020E0958D8B05BEFC7
:1006B00003F05DEF03F05FEF03F00F0E816E0804AF
:1006C000020E0958D8A067EF03F069EF03F076EF48
:1006D00003F0810E085C020E0958D8B072EF03F0E7
:1006E00074EF03F076EF03F01F0E816E810E085C4D
:1006F000020E0958D8A07FEF03F081EF03F08DEFD1
:1007000003F00804030E0958D8B089EF03F08BEF0B
:1007100003F08DEF03F03F0E816E0804030E0958BD
:10072000D8A095EF03F097EF03F0A4EF03F0810E4C
:10073000085C030E0958D8B0A0EF03F0A2EF03F055
:10074000A4EF03F07F0E816E810E085C030E095842
:10075000D8A0ADEF03F0AFEF03F0B0EF03F0816886
:10076000070E076E170E066E6A0EE82EFED7062ECF
:10077000FCD7072EFAD700D006EF03F000EF00F009
:10078000056E05C003F0D8900336D8900336C250EA
:10079000C30B0310C26E500EE82EFED7C282C2B247
:1007A000D4EF03F0D6EF03F0CFEF03F0C450046EA4
:1007B000036AC3500324016E000E0420026E12006F
:1007C000010EC26E0E0EC16EAA0EC06E12000001A6
:0407D00001EF03F042
:020000040030CA
:0E000000FF071F1EFF8385FF0FC00FE00F409C
:00000001FF
