:040000007DEF16F08A
:100600000054656E73616F3A20252E3366205600C4
:09061000696E66006E616E000067
:10061A00000E0001A16F56C0A2F057C0A3F058C047
:10062A00A4F059C0A5F0A5BF1FEF03F01DEF03F01A
:10063A0033EF03F0010EA16FA2C001F0A3C002F0D4
:10064A00A4C003F0A5C004F0BEEC17F001C0A2F0EC
:10065A0002C0A3F003C0A4F004C0A5F0000E00017C
:10066A00A76F000EA66F78C091F079C092F0A151E1
:10067A00D8B442EF03F044EF03F058EF03F0A1516E
:10068A00D8A44AEF03F04CEF03F052EF03F0000E48
:10069A00876F2B0E866F56EF03F0000E876F2D0EB5
:1006AA00866F86C0A1F0A2C001F0A3C002F0A4C068
:1006BA0003F0A5C004F010EC14F001040210D8A451
:1006CA0069EF03F06BEF03F09AEF03F00001A15119
:1006DA00D8B472EF03F074EF03F07DEF03F0A1C01A
:1006EA0000F19107D8A09207000EA76F010EA66F1E
:1006FA00000EA625016E010EA721026E100E036ED2
:10070A0085EC17F00001FD0E9127FF0E922355C0CC
:10071A000FF0000E106E010E116E91C012F092C011
:10072A0013F04AEC16F001EF08F0A2C001F0A3C0E2
:10073A0002F0A4C003F0A5C004F010EC14F00150BC
:10074A000210D8A4ABEF03F0ADEF03F0CBEF03F048
:10075A000001A151D8B4B4EF03F0B6EF03F0BFEF34
:10076A0003F0A1C000F19107D8A09207000EA76F6D
:10077A00010EA66F000EA625016E010EA721026EBC
:10078A00140E036E85EC17F087EF03F0000E0001DC
:10079A00A86F000EA96F800EAA6F3F0EAB6F000EF6
:1007AA00906F000E8F6FA2C001F0A3C002F0A4C028
:1007BA0003F0A5C004F0000E056E000E066E000ED2
:1007CA00076E000E086EA2EC15F0D8B0EFEF03F03A
:1007DA00F1EF03F0D0EF04F0FEEF03F093C0A8F0BE
:1007EA0094C0A9F095C0AAF096C0ABF000018F4B57
:1007FA00902BA8C00FF0A9C010F0AAC011F0ABC08E
:10080A0012F0000E136E000E146E200E156E410EBD
:10081A00166E62EC0AF00FC093F010C094F011C08B
:10082A0095F012C096F000019351A25D016E9451A9
:10083A00A359026E9551A459036E9651A559046E97
:10084A00AFEC16F004BE35EF04F0045003100210AA
:10085A0009E1020E015CD8A035EF04F037EF04F08D
:10086A00F3EF03F093C028F094C029F095C02AF062
:10087A0096C02BF0A2C02CF0A3C02DF0A4C02EF07D
:10088A00A5C02FF08EEC13F0D8A04EEF04F050EF75
:10089A0004F0F3EF03F00001A851A25D016EA95123
:1008AA00A359026EAA51A459036EAB51A559046EFD
:1008BA00AFEC16F004BE6FEF04F004500310021000
:1008CA0007E1020E015CD8B06DEF04F06FEF04F09F
:1008DA00B7EF04F0A8C0A2F0A9C0A3F0AAC0A4F080
:1008EA00ABC0A5F0D0EF04F0A8C028F0A9C029F049
:1008FA00AAC02AF0ABC02BF0000E2C6E000E2D6E93
:10090A00200E2E6E410E2F6E77EC0CF028C0A8F048
:10091A0029C0A9F02AC0AAF02BC0ABF000018F07AA
:10092A00D8A09007A851A25D016EA951A359026EE1
:10093A00AA51A459036EAB51A559046EAFEC16F037
:10094A0004BEB5EF04F004500310021007E1020ED2
:10095A00015CD8B0B3EF04F0B5EF04F0B7EF04F0E0
:10096A006FEF04F0A2C028F0A3C029F0A4C02AF0B7
:10097A00A5C02BF0A8C02CF0A9C02DF0AAC02EF05B
:10098A00ABC02FF08EEC13F0D8A0CEEF04F0D0EF6E
:10099A0004F079EF04F05AC089F089C08AF07BBE6E
:1009AA00D9EF04F0DBEF04F0E1EF04F07AC082F053
:1009BA007BC083F0E6EF04F0000E0001836F060EA1
:1009CA00826F82C08DF083C08EF000018D4B8E2B1A
:1009DA00660E8A19D8A4F4EF04F0F6EF04F016EFC5
:1009EA0005F090BFFDEF04F0FBEF04F009EF05F00E
:1009FA00000EA86F000EA96F800EAA6F3F0EAB6F94
:100A0A00000E906F000E8F6F670E8919D8B410EF21
:100A1A0005F012EF05F016EF05F08F518D27905172
:100A2A008E23000E986F000E976FA2C099F0A3C094
:100A3A009AF0A4C09BF0A5C09CF0A8C093F0A9C0EE
:100A4A0094F0AAC095F0ABC096F0A7EF05F099C054
:100A5A0028F09AC029F09BC02AF09CC02BF0A8C0AD
:100A6A002CF0A9C02DF0AAC02EF0ABC02FF077EC65
:100A7A000CF028C041F029C042F02AC043F02BC034
:100A8A0044F05CEC0FF041C09DF042C09EF043C0C0
:100A9A009FF044C0A0F09DC001F09EC002F09FC02C
:100AAA0003F0A0C004F00BEC13F001C08BF002C0FD
:100ABA008CF099C028F09AC029F09BC02AF09CC0FB
:100ACA002BF09DC013F09EC014F09FC015F0A0C07B
:100ADA0016F0A8C00FF0A9C010F0AAC011F0ABC060
:100AEA0012F062EC0AF00FC02CF010C02DF011C009
:100AFA002EF012C02FF002EC17F028C099F029C08E
:100B0A009AF02AC09BF02BC09CF0A8C028F0A9C07C
:100B1A0029F0AAC02AF0ABC02BF0000E2C6E000EF2
:100B2A002D6E200E2E6E410E2F6E77EC0CF028C023
:100B3A00A8F029C0A9F02AC0AAF02BC0ABF0000186
:100B4A00974B982B8D51975D9851800A5B6E8E5109
:100B5A00800A5B58D8A0B4EF05F0B6EF05F02CEF89
:100B6A0005F0A8C00FF0A9C010F0AAC011F0ABC0E0
:100B7A0012F0000E136E000E146EA00E156E400ECB
:100B8A00166E62EC0AF00FC09DF010C09EF011C004
:100B9A009FF012C0A0F099C028F09AC029F09BC01B
:100BAA002AF09CC02BF09DC02CF09EC02DF09FC057
:100BBA002EF0A0C02FF08EEC13F0D8B0E7EF05F0BE
:100BCA00E9EF05F0F4EF05F0000E00019D6F000E4D
:100BDA009E6F000E9F6F000EA06F1DEF06F099C06A
:100BEA0001F09AC002F09BC003F09CC004F09DC0C3
:100BFA0005F09EC006F09FC007F0A0C008F0A2EC66
:100C0A0015F0D8A00BEF06F00DEF06F01DEF06F079
:100C1A0000018BB113EF06F015EF06F01DEF06F099
:100C2A00000E9D6F000E9E6F000E9F6F000EA06F4C
:100C3A00A2C001F0A3C002F0A4C003F0A5C004F052
:100C4A009DC005F09EC006F09FC007F0A0C008F046
:100C5A0002EC08F001C099F002C09AF003C09BF0C0
:100C6A0004C09CF099C028F09AC029F09BC02AF0D1
:100C7A009CC02BF0000E136E000E146E200E156E23
:100C8A00410E166E93C00FF094C010F095C011F08B
:100C9A0096C012F062EC0AF00FC02CF010C02DF0D2
:100CAA0011C02EF012C02FF08EEC13F0D8A060EF16
:100CBA0006F062EF06F08BEF06F000018F4B902BE7
:100CCA0093C00FF094C010F095C011F096C012F0C6
:100CDA00000E136E000E146E200E156E410E166E67
:100CEA0062EC0AF00FC093F010C094F011C095F0B6
:100CFA0012C096F0660E00018A19D8A487EF06F092
:100D0A0089EF06F08BEF06F08D4B8E2B93C0A8F07F
:100D1A0094C0A9F095C0AAF096C0ABF08FC080F03D
:100D2A0090C081F0000E0001886F000E856F000EE2
:100D3A00846F000E986F000E976F89EF07F099C0C5
:100D4A0028F09AC029F09BC02AF09CC02BF0A8C0BA
:100D5A002CF0A9C02DF0AAC02EF0ABC02FF077EC72
:100D6A000CF028C041F029C042F02AC043F02BC041
:100D7A0044F05CEC0FF041C09DF042C09EF043C0CD
:100D8A009FF044C0A0F09DC001F09EC002F09FC039
:100D9A0003F0A0C004F00BEC13F002BEE0EF06F083
:100DAA00025007E10A0E015CD8B0DEEF06F0E0EF70
:100DBA0006F0F0EF06F09DC001F09EC002F09FC061
:100DCA0003F0A0C004F00BEC13F001C08BF002C0DA
:100DDA008CF0F5EF06F0000E00018C6F090E8B6F98
:100DEA0000018851D8A4FCEF06F0FEEF06F026EFCA
:100DFA0007F081BF05EF07F003EF07F026EF07F0D2
:100E0A00000EA625D96E010EA721DA6E2E0EDF6E10
:100E1A00A64BA72B9107D8A09207010E886F26EF41
:100E2A0007F0000EA625D96E010EA721DA6E300E44
:100E3A00DF6EA64BA72B9107D8A092078407D8A0EC
:100E4A00850784518511D8A42DEF07F02FEF07F0FD
:100E5A0016EF07F0000EA625D96E010EA721DA6E4D
:100E6A008B51300FDF6EA64BA72B9107D8A09207A4
:100E7A0099C028F09AC029F09BC02AF09CC02BF098
:100E8A009DC013F09EC014F09FC015F0A0C016F0CC
:100E9A00A8C00FF0A9C010F0AAC011F0ABC012F0A0
:100EAA0062EC0AF00FC02CF010C02DF011C02EF029
:100EBA0012C02FF002EC17F028C099F029C09AF05E
:100ECA002AC09BF02BC09CF0A8C028F0A9C029F02A
:100EDA00AAC02AF0ABC02BF0000E2C6E000E2D6EAD
:100EEA00200E2E6E410E2F6E77EC0CF028C0A8F063
:100EFA0029C0A9F02AC0AAF02BC0ABF000018007D4
:100F0A00D8A08107974B982B8D51975D9851800AED
:100F1A005B6E8E51800A5B58D8B096EF07F098EF57
:100F2A0007F0A6EF07F0A7BFA4EF07F0A75109E162
:100F3A004B0EA65DD8A0A4EF07F0A6EF07F0A4EF2A
:100F4A0006F0000E986F4F0E976F000E9725D96E18
:100F5A00010E9821DA6EDF6A000E5B6E010E5C6E7E
:100F6A00A6515B5EA7515C5A97515B24016E98515A
:100F7A005C20026E000E036E010E046EA6C005F020
:100F8A00A7C006F0DAEC16F00001A651975DA66F2D
:100F9A00A7519859A76FA151D8A4D6EF07F0D9EF56
:100FAA0007F0010EDAEF07F0000E976F986BA15168
:100FBA00D8B4E2EF07F0E4EF07F0EFEF07F0A60787
:100FCA00D8A0A707000EA625D96E010EA721DA6EB2
:100FDA00A1C0DFFF9751915F9851925B55C00FF006
:100FEA00000EA625106E010EA721116E91C012F0F7
:100FFA0092C013F04AEC16F012000450800B0D6EEA
:10100A00045004240F6E03AE0DEF08F00FEF08F042
:10101A0010EF08F00F800F50D8B416EF08F018EF51
:10102A0008F02DEF08F00F28D8A41EEF08F020EFE3
:10103A0008F028EF08F0000E016E000E026E000E96
:10104A00036E000E046E038E000E046E35EF08F078
:10105A00000E016E000E026E000E036E000E046E8C
:10106A000850800B0E6E0D500E18D8B43FEF08F0E2
:10107A0041EF08F042EF08F00D8C085008240E6E7C
:10108A0007AE4AEF08F04CEF08F04DEF08F00E807B
:10109A000E50D8B453EF08F055EF08F06AEF08F095
:1010AA000E28D8A45BEF08F05DEF08F065EF08F0B2
:1010BA00000E056E000E066E000E076E000E086E1C
:1010CA00078E000E086E72EF08F0000E056E000E15
:1010DA00066E000E076E000E086E0F500E5CD8B03A
:1010EA0079EF08F07BEF08F0A2EF08F00DAC80EF83
:1010FA0008F082EF08F084EF08F0800E0D1A0FC096
:10110A0010F00EC00FF010C00EF001C010F005C0B4
:10111A0001F010C005F002C010F006C002F010C0C5
:10112A0006F003C010F007C003F010C007F004C0B7
:10113A0010F008C004F010C008F0000E106E0F5036
:10114A000EC009F00A6A095E000E0A5A0ABEB7EF13
:10115A0008F00A5009E11A0E095CD8A0B7EF08F0A6
:10116A00B9EF08F0F0EF08F0015002100310041074
:10117A00D8A4C2EF08F0C5EF08F0010EC6EF08F0D8
:10118A00000E106E000E016E000E026E000E036E4F
:10119A00000E046E0EC00FF0F9EF08F010A0D8EFA1
:1011AA0008F0DAEF08F0E0EF08F0D8901030010903
:1011BA00106EE2EF08F0D890103201A0E7EF08F0C5
:1011CA00E9EF08F0EAEF08F0108E04340432033233
:1011DA00023201320F2A0E500F5CD8A0F7EF08F046
:1011EA00F9EF08F0D3EF08F00DBCFEEF08F000EFBE
:1011FA0009F040EF09F00F50D8A406EF09F008EF04
:10120A0009F012EF09F0000E016E000E026E000ED8
:10121A00036E000E046E61EF0AF0055001260650B7
:10122A000222075003220850042204A01FEF09F0EB
:10123A0021EF09F0CDEF09F010A026EF09F028EF11
:10124A0009F02EEF09F0D89010300109106E30EF36
:10125A0009F0D890103201A035EF09F037EF09F004
:10126A0038EF09F0108E04340432033202320132AC
:10127A000F2ACDEF09F00550015C065002580750BD
:10128A0003580450800A096E0850800A0958D8B0D9
:10129A0051EF09F053EF09F07EEF09F00150055CB8
:1012AA00096E025006580A6E035007580B6E045016
:1012BA0008580C6EFF0E0924016EFF0E0A20026EFA
:1012CA00FF0E0B20036EFF0E0C20046E800E0D1A0B
:1012DA00106C1050D8A474EF09F076EF09F086EF7D
:1012EA0009F0010E0126000E02220322042286EFD3
:1012FA0009F00550015E0650025A0750035A085079
:10130A00045A0150021003100410D8A48FEF09F0F8
:10131A0091EF09F0C6EF09F01050D8A497EF09F041
:10132A0099EF09F0C6EF09F0000E016E000E026E89
:10133A00000E036E000E046E61EF0AF0D8900136BB
:10134A0002360336043610AEADEF09F0AFEF09F0FE
:10135A00B0EF09F0018010A0B5EF09F0B7EF09F07E
:10136A00BBEF09F0D8801036BDEF09F0D8901036DF
:10137A000F50D8B4C3EF09F0C5EF09F0C6EF09F072
:10138A000F0603AECBEF09F0CDEF09F0A3EF09F09A
:10139A00000E0E6E10AED4EF09F0D6EF09F0EEEFA4
:1013AA0009F010C009F07F0E0916D8B4DFEF09F072
:1013BA00E1EF09F0E5EF09F0010E0E6EEEEF09F02C
:1013CA0001A0EAEF09F0ECEF09F0EEEF09F0E1EF26
:1013DA0009F00E50D8B4F4EF09F0F6EF09F021EF56
:1013EA000AF0010E0126000E02220322042204A0A2
:1013FA0001EF0AF003EF0AF021EF0AF001C009F049
:10140A0002C00AF003C00BF004C00CF00C340C321A
:10141A000B320A32093209C001F00AC002F00BC0CD
:10142A0003F00CC004F00F28D8B41EEF0AF020EF26
:10143A000AF021EF0AF00F2A0F28D8B427EF0AF092
:10144A0029EF0AF031EF0AF00F50D8A42FEF0AF073
:10145A0031EF0AF043EF0AF0000E016E000E026E41
:10146A00000E036E000E046E0F50D8A43FEF0AF070
:10147A0041EF0AF043EF0AF0000E0D6E0FA048EF9D
:10148A000AF04AEF0AF04DEF0AF0038E4EEF0AF027
:10149A00039ED8900F30046E0DAE56EF0AF058EF47
:1014AA000AF059EF0AF0048E01C001F002C002F0FE
:1014BA0003C003F004C004F012001250800B1B6E2C
:1014CA0012501224216E11AE6DEF0AF06FEF0AF07E
:1014DA0070EF0AF021802150D8B476EF0AF078EF45
:1014EA000AF08BEF0AF02128D8A47EEF0AF080EFE9
:1014FA000AF088EF0AF0000E0F6E000E106E000E52
:10150A00116E000E126E118E93EF0AF0000E0F6E1E
:10151A00000E106E000E116E000E126E1650800B29
:10152A001B1A165016241C6E15AE9EEF0AF0A0EF79
:10153A000AF0A1EF0AF01C801C50D8B4A7EF0AF0F9
:10154A00A9EF0AF0BCEF0AF01C28D8A4AFEF0AF002
:10155A00B1EF0AF0B9EF0AF0000E136E000E146E26
:10156A00000E156E000E166E158EC4EF0AF0000EF0
:10157A00136E000E146E000E156E000E166E1C50C1
:10158A00D8B4CAEF0AF0CCEF0AF0D4EF0AF021502F
:10159A00D8A4D2EF0AF0D4EF0AF0DEEF0AF0000E78
:1015AA000F6E000E106E000E116E000E126E76EFA8
:1015BA000CF015500F02F3CF26F0F4CF27F0265087
:1015CA001D6E1E6A1F6A206A2750226E236A246AC9
:1015DA00256A14501002F3CF26F0F4CF27F02650D4
:1015EA001D26000E1E221F22202227502226000E10
:1015FA0023222422252213501102F3CF26F0F4CFFE
:10160A0027F026501D26000E1E221F2220222750B8
:10161A002226000E2322242225221FC020F01EC0CB
:10162A001FF01DC01EF01D6A13501002F3CF26F0E2
:10163A00F4CF27F026501D2627501E22000E1F2207
:10164A00000E202214500F02F3CF26F0F4CF27F019
:10165A0026501D2627501E22000E1F22000E202271
:10166A001FC020F01EC01FF01DC01EF01D6A1350BF
:10167A000F02F3CF26F0F4CF27F026501D2627506D
:10168A001E22000E1F22000E202215501002F3CF38
:10169A0026F0F4CF27F02650222627502322000EC8
:1016AA002422000E252214501102F3CF26F0F4CF83
:1016BA0027F02650222627502322000E2422000E2D
:1016CA00252215501102F3CF26F0F4CF27F0265029
:1016DA00176E2750186E196A1A6A19C01AF018C0BC
:1016EA0019F017C018F0176A17502226185023222B
:1016FA00195024221A5025221DC017F01EC018F0B6
:10170A001FC019F020C01AF0190E91EF0BF0D890F3
:10171A001A32193218321732E82E8CEF0BF01750A2
:10172A00222618502322195024221A5025221FC07B
:10173A0020F01EC01FF01DC01EF01D6A1C5021C0E3
:10174A0017F0186A1726000E1822820E1724266E22
:10175A00FF0E1820276EC7EF0BF0D89022362336DB
:10176A002436253620AEBCEF0BF0BEEF0BF0BFEFF0
:10177A000BF02280D8901D361E361F3620362606DC
:10178A00D8A0270624AECCEF0BF0CEEF0BF0B2EFC9
:10179A000BF0000E1C6E20AED5EF0BF0D7EF0BF05E
:1017AA00FBEF0BF0FF0E1D14176EFF0E1E14186EC2
:1017BA00FF0E1F14196E7F0E20141A6E1750181080
:1017CA0019101A10D8B4ECEF0BF0EEEF0BF0F2EFA1
:1017DA000BF0010E1C6EFBEF0BF022A0F7EF0BF0E3
:1017EA00F9EF0BF0FBEF0BF0EEEF0BF01C50D8B457
:1017FA0001EF0CF003EF0CF027EF0CF0010E22269C
:10180A00000E23222422252225A00EEF0CF010EF31
:10181A000CF027EF0CF022C017F023C018F024C0F8
:10182A0019F025C01AF01A341A321932183217323E
:10183A0017C022F018C023F019C024F01AC025F0EE
:10184A00264A272A27BE32EF0CF0275008E126281D
:10185A00D8A032EF0CF034EF0CF03EEF0CF0000E93
:10186A00226E000E236E800E246E7F0E256E6CEFA4
:10187A000CF027BE4BEF0CF0275006E12604D8B037
:10188A0049EF0CF04BEF0CF057EF0CF0000E226E04
:10189A00000E236E000E246E000E256E000E1B6EC7
:1018AA006CEF0CF026C021F0FF0E2216FF0E231655
:1018BA007F0E2416000E251621A066EF0CF068EFA5
:1018CA000CF069EF0CF0248ED8902130256E1B5055
:1018DA00251222C00FF023C010F024C011F025C039
:1018EA0012F012002B50800B386E2B502B243F6EB7
:1018FA002AAE82EF0CF084EF0CF085EF0CF03F80FB
:10190A003F50D8B48BEF0CF08DEF0CF0A2EF0CF037
:10191A003F28D8A493EF0CF095EF0CF09DEF0CF054
:10192A00000E286E000E296E000E2A6E000E2B6E17
:10193A002A8E000E2B6EAAEF0CF0000E286E000EF7
:10194A00296E000E2A6E000E2B6E2F50800B381A4D
:10195A002F502F24406E2EAEB5EF0CF0B7EF0CF0DF
:10196A00B8EF0CF040804050D8B4BEEF0CF0C0EF96
:10197A000CF0D5EF0CF04028D8A4C6EF0CF0C8EF55
:10198A000CF0D0EF0CF0000E2C6E000E2D6E000E37
:10199A002E6E000E2F6E2E8E000E2F6EDDEF0CF0C7
:1019AA00000E2C6E000E2D6E000E2E6E000E2F6E87
:1019BA002C502D102E102F10D8A4E6EF0CF0E8EFC3
:1019CA000CF000EF0DF0000E286E000E296E000ECE
:1019DA002A6E000E2B6E800E2A127F0E2B123850A2
:1019EA002B1228C028F029C029F02AC02AF02BC0BF
:1019FA002BF043EF0EF03F50D8A406EF0DF008EF9E
:101A0A000DF012EF0DF0000E286E000E296E000E7A
:101A1A002A6E000E2B6E43EF0EF040503FC030F09E
:101A2A00316A305E000E315A7F0E3024396E000E54
:101A3A0031203A6E28C034F029C035F02AC036F079
:101A4A002BC037F0000E286E000E296E000E2A6E8B
:101A5A00000E2B6E000E3B6E000E3C6E000E3D6EAD
:101A6A00000E3E6E000E406E73EF0DF04050D8B47B
:101A7A0041EF0DF043EF0DF05AEF0DF0D8903436E8
:101A8A00353636363736D890283629362A362B3622
:101A9A003EAE52EF0DF054EF0DF055EF0DF02880E9
:101AAA00D8903B363C363D363E362C50345C2D5071
:101ABA0035582E5036582F503758D8A067EF0DF0AA
:101ACA0069EF0DF072EF0DF03E8C2C50345E2D5004
:101ADA00355A2E50365A2F50375A402A190E40641A
:101AEA0079EF0DF07BEF0DF03BEF0DF03450351030
:101AFA0036103710D8B484EF0DF086EF0DF09EEF54
:101B0A000DF03B809EEF0DF0D890283629362A3604
:101B1A002B363EAE93EF0DF095EF0DF096EF0DF0EC
:101B2A002880D8903B363C363D363E363906D8A01A
:101B3A003A062AAEA3EF0DF0A5EF0DF089EF0DF0EE
:101B4A00000E406E3EAEACEF0DF0AEEF0DF0D2EFF0
:101B5A000DF0FF0E3B14306EFF0E3C14316EFF0E7B
:101B6A003D14326E7F0E3E14336E305031103210F7
:101B7A003310D8B4C3EF0DF0C5EF0DF0C9EF0DF077
:101B8A00010E406ED2EF0DF028A0CEEF0DF0D0EF8F
:101B9A000DF0D2EF0DF0C5EF0DF04050D8B4D8EFEC
:101BAA000DF0DAEF0DF0FEEF0DF0010E2826000E13
:101BBA0029222A222B222BA0E5EF0DF0E7EF0DF0C8
:101BCA00FEEF0DF028C030F029C031F02AC032F003
:101BDA002BC033F03334333232323132303230C008
:101BEA0028F031C029F032C02AF033C02BF0394A2C
:101BFA003A2A3ABE09EF0EF03A5008E13928D8A03D
:101C0A0009EF0EF00BEF0EF016EF0EF0000E3A6E23
:101C1A003968000E286E000E296E000E2A6E000E1C
:101C2A002B6E3ABE23EF0EF03A5006E13904D8B0D3
:101C3A0021EF0EF023EF0EF031EF0EF0000E3A6EA8
:101C4A00000E396E000E286E000E296E000E2A6EE6
:101C5A00000E2B6E000E386E39C03FF03FA038EFF1
:101C6A000EF03AEF0EF03DEF0EF02A8E3EEF0EF038
:101C7A002A9ED8903F302B6EF4EF0CF012000A6EB9
:101C8A0095949598959A959C959E959295900AB05B
:101C9A0002D0839001D0838003B002D0839201D016
:101CAA00838203500410D8A45DEF0EF05FEF0EF0AC
:101CBA00DAEF0EF0086A05AE01D0082A084608468F
:101CCA0083500818FB0B0818836E05C008F0060E2F
:101CDA00096ED8900832092E6EEF0EF0083A83503A
:101CEA000818EF0B0818836E05C008F0050E096E78
:101CFA00D8900832092E7DEF0EF0083A0846835034
:101D0A000818DF0B0818836E05C008F0083A0F0E92
:101D1A000816083A0846084683500818BF0B0818E0
:101D2A00836E838E000E026E020E016E39EC18F07D
:101D3A00839E05C008F0D8900832D8900832D8900F
:101D4A0008320846084683500818FB0B0818836EA9
:101D5A0005C008F0D8900832D8900832083A835063
:101D6A000818EF0B0818836E05C008F0D8900832DF
:101D7A00083A084683500818DF0B0818836E05B026
:101D8A0002D0839C01D0838C838E000E026E020ED9
:101D9A00016E39EC18F0839E06C001F007C002F00C
:101DAA0039EC18F0000E5BEF0FF095849588958A50
:101DBA00958C838E000E026E020E016E39EC18F0BD
:101DCA00000E83B4010E0B6E83B8EEEF0EF0F2EF45
:101DDA000EF0086A082AF3EF0EF0086A0B500B247B
:101DEA0008100B6E83BAFCEF0EF000EF0FF0086AD2
:101DFA00082A01EF0FF0086A0B500B2408100B6E2B
:101E0A0083BC0AEF0FF00EEF0FF0086A082A0FEFF3
:101E1A000FF0086A0B500B2408100B6E839E838EFA
:101E2A00000E026E020E016E39EC18F083B420EF38
:101E3A000FF024EF0FF0086A082A25EF0FF0086A5E
:101E4A000B500B2408100B6E83B82EEF0FF032EFF5
:101E5A000FF0086A082A33EF0FF0086A0B500B24B8
:101E6A0008100B6E83BA3CEF0FF040EF0FF0086AD0
:101E7A00082A41EF0FF0086A0B500B2408100B6E6A
:101E8A0083BC4AEF0FF04EEF0FF0086A082A4FEFB3
:101E9A000FF0086A0B500B2408100B6E839E06C0C5
:101EAA0001F007C002F039EC18F00B501200D4C050
:101EBA0051F0D5C052F0D6C053F0D7C054F041C04B
:101ECA0051F042C052F043C053F044C054F0810E66
:101EDA00456EFF0E466E51C047F052C048F053C0DF
:101EEA0049F054C04AF0180E80EF0FF0D8904A32E9
:101EFA00493248324732E82E7BEF0FF047504524EB
:101F0A004F6E000E4620506E50BE95EF0FF05050A7
:101F1A0009E1170E4F5CD8A095EF0FF097EF0FF07D
:101F2A00A1EF0FF041C041F042C042F043C043F07C
:101F3A0044C044F064EF10F050BEA6EF0FF0A8EFD3
:101F4A000FF018EF10F04FC045F0FF0E466EFF0E6F
:101F5A00476E7F0E486E000E496E4566B7EF0FF06A
:101F6A00BFEF0FF049344932483247324632452EE4
:101F7A00B2EF0FF046C04BF047C04CF048C04DF0EE
:101F8A0049C04EF04B505114456E4C505214466E97
:101F9A004D505314476E4E505414486E45504610D7
:101FAA0047104810D8A4DCEF0FF0DEEF0FF0E0EF97
:101FBA000FF097EF0FF051C045F052C046F053C0F2
:101FCA0047F054C048F0200EF0EF0FF0D890483296
:101FDA00473246324532E82EEBEF0FF045504610B5
:101FEA0047104810D8B4FCEF0FF0FEEF0FF006EFE1
:101FFA0010F04B5051264C5052224D5053224E5005
:10200A0054224B1C456E4C1C466E4D1C476E4E1C92
:10201A00486E45505116465052164750531648506E
:10202A0054165CEF10F051C045F052C046F053C050
:10203A0047F054C048F0200E28EF10F0D8904832EC
:10204A00473246324532E82E23EF10F0455046100B
:10205A0047104810D8A434EF10F036EF10F040EFD4
:10206A0010F0000E516E000E526E000E536E000EEE
:10207A00546E5CEF10F0D8905134456E5234466E6F
:10208A005334476E5434486E455046104710481032
:10209A00D8B452EF10F054EF10F05CEF10F0000ECD
:1020AA00516E000E526E800E536EBF0E546E51C0AA
:1020BA0041F052C042F053C043F054C044F0120001
:1020CA005E50D96EDA6ADFCFF6FF060EF76E0800A9
:1020DA00F550250AD8A474EF10F076EF10F058EFF7
:1020EA0011F05E50D96EDA6ADF2A000E796E000EA0
:1020FA00786E78C07CF07A687B685E50D96EDA6A4E
:10210A00DFCFF6FF060EF76E0800F5502E0AD8A4A8
:10211A0091EF10F093EF10F0A1EF10F05E50D96E2E
:10212A00DA6ADF2A5EC007F05FC008F0F7EC15F044
:10213A0007C07AF008C07BF05E50D96EDA6ADF50C9
:10214A00676E67C0F6FF060EF76E0800F5CF66F0F9
:10215A00BAEF10F0672AD3EF10F06C0E666ED3EF69
:10216A0010F0000E666ED3EF10F06650606E616A72
:10217A006150000AD8B4C4EF10F0B6EF10F0605006
:10218A004C0AD8B4AFEF10F02A0AD8B4B2EF10F064
:10219A000A0AD8B4AFEF10F0B6EF10F067C0F6FF36
:1021AA00060EF76E0800F550660AD8A4DFEF10F0A5
:1021BA00E1EF10F052EF11F00BEF11F05F50D96E12
:1021CA00DA6ADFCF60F0040EDF266050D96EDA6A71
:1021DA00DECF62F0DECF63F0DECF64F0DECF65F0F3
:1021EA0020EF11F05F50D96EDA6ADFCF60F0040E8B
:1021FA00DF266050D96EDA6ADECF62F0DECF63F096
:10220A00DECF64F0DECF65F020EF11F06650606E2D
:10221A00616A6150000AD8B415EF11F020EF11F08D
:10222A0060504C0AD8B4F7EF10F0200AD8B4E3EFA4
:10223A0010F020EF11F05E50D96EDA6A6728DF6E6F
:10224A003CEF11F05DC055F062C056F063C057F024
:10225A0064C058F065C059F067C0F6FF060EF76E05
:10226A000800F5CF5AF00DEC03F069EF11F067C0E2
:10227A00F6FF060EF76E0800F550606E616A61504F
:10228A00000AD8B44BEF11F052EF11F06050660A11
:10229A00D8B427EF11F052EF11F05E50D96EDA6A16
:1022AA00DF2A69EF11F05E50D96EDA6ADFCFF6FFE6
:1022BA00060EF76E0800F550016E026A5DC003F063
:1022CA004DEC15F052EF11F01200096E0950D8B416
:1022DA0071EF11F073EF11F095EF11F004BE7AEF80
:1022EA0011F078EF11F095EF11F001C005F002C07E
:1022FA0006F003C007F004C008F0051E061E071EFC
:10230A00081E052A000E06220722082205C00BF025
:10231A0006C00CF007C00DF008C00EF09DEF11F0DA
:10232A0001C00BF002C00CF003C00DF004C00EF0A7
:10233A000150021003100410D8A4A6EF11F0A8EF60
:10234A0011F0B2EF11F0000E016E000E026E000ED7
:10235A00036E000E046E43EF12F0960E0A6EBCEF87
:10236A0011F00A2AD8900E320D320C320B32000EBE
:10237A000B14056E000E0C14066E000E0D14076E7B
:10238A00FE0E0E14086E0550061007100810D8A489
:10239A00D1EF11F0D3EF11F0B6EF11F0E1EF11F038
:1023AA000A2A010E0B26000E0C220D220E22D890AC
:1023BA000E320D320C320B32000E0B14056E000E6B
:1023CA000C14066E000E0D14076EFF0E0E14086E26
:1023DA000550061007100810D8A4F6EF11F0F8EF10
:1023EA0011F0D5EF11F000EF12F00A06D8900B3673
:1023FA000C360D360E360DBE05EF12F007EF12F051
:10240A000FEF12F0020E0A600DEF12F00FEF12F04A
:10241A00FAEF11F00AB014EF12F016EF12F017EFFC
:10242A0012F00D9ED8900A320AC005F0066A076AB1
:10243A00086A05C008F0076A066A056A05500B12A1
:10244A0006500C1207500D1208500E120950D8B43B
:10245A0031EF12F033EF12F03BEF12F004BE3AEF15
:10246A0012F038EF12F03BEF12F00E8E0BC001F0B3
:10247A000CC002F00DC003F00EC004F012000F6E83
:10248A0020EEC7F010EE11F0050EDBCFE3FFE806F1
:10249A00FCE20FC013F00CC014F00DC015F09594B7
:1024AA009598959A959C959E9592959083908392EE
:1024BA00839E4E0E026E200E016E39EC18F0000E4D
:1024CA00106E11C00EF0D8900E32D8900E32D890FD
:1024DA000E320E460E4683500E18FB0B0E18836EF4
:1024EA0011C00EF0D8900E32D8900E320E3A8350A8
:1024FA000E18EF0B0E18836E11C00EF0D8900E3224
:10250A000E3A0E4683500E18DF0B0E18836E11B06A
:10251A0002D0839C01D0838C838E000E026E020E41
:10252A00016E39EC18F0839E130E026E880E016E4E
:10253A0039EC18F0102A020E1064A6EF12F0A8EF78
:10254A0012F066EF12F012C00EF0D8900E32D89048
:10255A000E32D8900E320E460E4683500E18FB0BE2
:10256A000E18836E12C00EF0D8900E32D8900E322A
:10257A000E3A83500E18EF0B0E18836E12C00EF02F
:10258A00D8900E320E3A0E4683500E18DF0B0E18F4
:10259A00836E12B002D0839C01D0838C838E000E8E
:1025AA00026E020E016E39EC18F0839E000E026E66
:1025BA00280E016E39EC18F0000E046E000E036E40
:1025CA0013C005F0000E076E280E066E000E44ECCE
:1025DA000EF0000E046E000E036E14C005F0000E1D
:1025EA00076E280E066E000E44EC0EF0000E046E06
:1025FA00000E036E15C005F0000E076E280E066E5B
:10260A00000E44EC0EF058EC18F0120003340434B7
:10261A000A6E0A50D8A414EF13F016EF13F020EF45
:10262A0013F0000E016E000E026E000E036E000E15
:10263A00046E8DEF13F001C005F002C006F003C06E
:10264A0007F004C008F0200E30EF13F0D8900832DB
:10265A00073206320532E82E2BEF13F00550096EC9
:10266A00038EFF0E0116FF0E0216FF0E0316000E52
:10267A000416960E0A5E0ABE47EF13F045EF13F0F2
:10268A005DEF13F00A50800A970FD8B04FEF13F09E
:10269A0051EF13F053EF13F016EF13F0D890043202
:1026AA000332023201320A3E53EF13F075EF13F090
:1026BA001F0E0A6463EF13F065EF13F06DEF13F06A
:1026CA0016EF13F0D89001360236033604360A069E
:1026DA000A50D8A473EF13F075EF13F067EF13F0F5
:1026EA000950D8B47BEF13F07DEF13F085EF13F0A8
:1026FA00041E031E021E016C000E02220322042283
:10270A0001C001F002C002F003C003F004C004F0EB
:10271A001200000E2814306E000E2914316E800E3D
:10272A002A14326E7F0E2B14336E30503110321051
:10273A003310D8A4A3EF13F0A5EF13F0ADEF13F005
:10274A00000E286E000E296E000E2A6E000E2B6EE9
:10275A00000E2C14306E000E2D14316E800E2E14C5
:10276A00326E7F0E2F14336E305031103210331008
:10277A00D8A4C2EF13F0C4EF13F0CCEF13F0000E9D
:10278A002C6E000E2D6E000E2E6E000E2F6E2BAECE
:10279A00D1EF13F0D3EF13F0DCEF13F0286C291EFE
:1027AA00D8B0292A2A1ED8B02A2A800E2B562FAE34
:1027BA00E1EF13F0E3EF13F0ECEF13F02C6C2D1EA6
:1027CA00D8B02D2A2E1ED8B02E2A800E2F56000ED3
:1027DA00281A000E291A000E2A1A800E2B1A000E29
:1027EA002C1A000E2D1A000E2E1A800E2F1A2C509B
:1027FA00285C2D5029582E502A582F502B58D8B0C3
:10280A0009EF14F00BEF14F00EEF14F0D8900FEF5D
:10281A0014F0D8801200D8C00BF0D9C00CF0DAC07E
:10282A000DF0DBC00EF001C00BF002C00CF003C0CB
:10283A000DF004C00EF00BC005F00CC006F00DC080
:10284A0007F00EC008F0180E30EF14F0D8900832D6
:10285A00073206320532E82E2BEF14F00550096EC6
:10286A000A6A09500A10D8A43DEF14F03FEF14F099
:10287A005FEF14F0D8900B34056E0C34066E0D34ED
:10288A00076E0E34086E0550061007100810D8A4FB
:10289A0051EF14F053EF14F059EF14F0000E026EDA
:1028AA00020E016E8EEF14F0000E026E030E016E20
:1028BA008EEF14F009280A10D8A466EF14F068EF16
:1028CA0014F08AEF14F00BC005F00CC006F00DC02E
:1028DA0007F00EC008F0090ED890053606360736FE
:1028EA000836E82E71EF14F005500610071008108C
:1028FA00D8B482EF14F085EF14F0010E86EF14F0CD
:10290A00000E016E026A8EEF14F0000E026E040EC3
:10291A00016E12000F6ED2EF14F0000E046E000E5C
:10292A00036E0C507F0F056E000E076E280E066EA2
:10293A00000E44EC0EF0EFEF14F0000E046E000EE1
:10294A00036E0C50BF0F056E000E076E280E066E42
:10295A00000E44EC0EF0EFEF14F0000E046E000EC1
:10296A00036E0C50930F056E000E076E280E066E4E
:10297A00000E44EC0EF0EFEF14F0000E046E000EA1
:10298A00036E0C50D30F056E000E076E280E066EEE
:10299A00000E44EC0EF0EFEF14F00F500D6E0E6ABD
:1029AA000E50000AD8B4DCEF14F0EFEF14F00D501B
:1029BA00010AD8B492EF14F0030AD8B4A2EF14F0C3
:1029CA00010AD8B4B2EF14F0070AD8B4C2EF14F06F
:1029DA00EFEF14F01200000E136E000E146EA00E2C
:1029EA00156E400E166EB5C001F0B6C002F0036A4D
:1029FA00046A000E6AEC11F001C00FF002C010F078
:102A0A0003C011F004C012F062EC0AF00FC028F003
:102A1A0010C029F011C02AF012C02BF0000E2C6E43
:102A2A00C00E2D6E7F0E2E6E440E2F6E77EC0CF0BC
:102A3A0028C0C1F029C0C2F02AC0C3F02BC0C4F01C
:102A4A00B70E0001AF6F010EB06FC1C0B1F0C2C0C6
:102A5A00B2F0C3C0B3F0C4C0B4F0A2EC17F0000ED9
:102A6A00DAEC17F0010E0C6E010E8FEC14F0B70EB3
:102A7A000D6E11EC18F0070E776E170E766E6A0E51
:102A8A00E82EFED7762EFCD7772EFAD700D0120082
:102A9A000350D8B453EF15F055EF15F05DEF15F06C
:102AAA000350D8A45BEF15F05DEF15F062EF15F057
:102ABA00015075EC18F0A1EF15F00350D96EDA6ADF
:102ACA000A0ED926DE50DE10D8B46EEF15F070EF7C
:102ADA0015F089EF15F00350D96EDA6A0A0ED92675
:102AEA000350E16EE26A030EE126DE50E65CE65030
:102AFA00800A086EDE50800A0858D8B087EF15F0B1
:102B0A0089EF15F0A1EF15F00350D96EDA6A030EBA
:102B1A00D926DF50046E0350D96EDA6ADF500424D6
:102B2A00D96EDA6A01C0DFFF0350D96EDA6A030E82
:102B3A00D926DE2A000EDD221200000E0114096ECB
:102B4A00000E02140A6E800E03140B6E7F0E04141C
:102B5A000C6E09500A100B100C10D8A4B7EF15F020
:102B6A00B9EF15F0C1EF15F0000E016E000E026EFE
:102B7A00000E036E000E046E000E0514096E000EA0
:102B8A0006140A6E800E07140B6E7F0E08140C6E64
:102B9A0009500A100B100C10D8A4D6EF15F0D8EF74
:102BAA0015F0E0EF15F0000E056E000E066E000E31
:102BBA00076E000E086E055001180FE10650021844
:102BCA000CE10750031809E108500418D8B4F0EFD3
:102BDA0015F0F2EF15F0F5EF15F0D890F6EF15F0C5
:102BEA00D8801200000E0B6E000E0A6E0750D96EC6
:102BFA00DA6ADFCFF6FF060EF76E0800F5502A0AEA
:102C0A00D8A40AEF16F00CEF16F032EF16F00750C0
:102C1A00D96EDA6ADF2A0850D96EDA6A020EDF261E
:102C2A00DF5CD96EDA6ADECF0AF0DECF0BF045EF51
:102C3A0016F00AC001F00BC002F0000E046E0A0E74
:102C4A00036E26EC18F0095001240A6E000E0220C9
:102C5A000B6E0750D96EDA6ADF2A0750D96EDA6A24
:102C6A00DFCFF6FF060EF76E0800F550D00F096E9B
:102C7A00090E096443EF16F045EF16F01EEF16F041
:102C8A000AC007F00BC008F0120013BE51EF16F08D
:102C9A004FEF16F055EF16F0000E136E000E126E7F
:102CAA00000E166E000E156E65EF16F0000E026E1F
:102CBA00200E016E0FC003F04DEC15F0154A162ACE
:102CCA001250155C1650800A146E1350800A14585C
:102CDA00D8A072EF16F074EF16F05BEF16F010C082
:102CEA0009F011C00AF00FC00BF045EC17F0120002
:102CFA00DA0EF66E300EF76E000EF86E00EEC7F0C2
:102D0A0010EE0DF00900F5CFEEFFE550E150FAE1C3
:102D1A00E70EF66E300EF76E000EF86E0900F5CF6C
:102D2A007DF00900F5CF7EF001EE00F0500EEE6A5C
:102D3A00E806FDE100EED4F0080EEE6AE806FDE1D1
:102D4A007C6A7B6A7A6A796A786A000EF86E000190
:102D5A00F6EF17F004BEB4EF16F0B6EF16F0C0EFB8
:102D6A0016F001C001F002C002F003C003F004C073
:102D7A0004F0D9EF16F001C005F002C006F003C056
:102D8A0007F004C008F0051E061E071E081E052AC5
:102D9A00000E06220722082205C001F006C002F032
:102DAA0007C003F008C004F0120003C00AF004C010
:102DBA000BF001C008F002C009F0F4EF16F00AC0E7
:102DCA00D9FF0BC0DAFFDF50076E0A4A0B2A08C088
:102DDA00D9FF09C0DAFF07C0DFFF084A092A05063A
:102DEA00D8A00606052806E10628D8A4FFEF16F0A3
:102DFA0001EF17F0E4EF16F01200000E2C1A000E85
:102E0A002D1A000E2E1A800E2F1A28C001F029C082
:102E1A0002F02AC003F02BC004F02CC005F02DC02C
:102E2A0006F02EC007F02FC008F002EC08F001C02F
:102E3A0028F002C029F003C02AF004C02BF01200C7
:102E4A00ADC068F031EF17F0ACC05DF0680E5E6E91
:102E5A00AEC05FF065EC10F068C0F6FF060EF76EC4
:102E6A000800F5500009D8A43DEF17F03FEF17F01E
:102E7A0029EF17F0000E0001AD6F000EAC6F1200C3
:102E8A00000E0E6E000E0D6E54EF17F00CC001F01E
:102E9A00026A0BC003F04DEC15F00D4A0E2A0D50D4
:102EAA000924D96E0E500A20DA6EDF500C6E0C50CF
:102EBA00D8A462EF17F064EF17F04BEF17F0120087
:102ECA00056E05C003F0D8900336D8900336C25079
:102EDA00C30B0310C26E500EE82EFED7C282C2B2D6
:102EEA0079EF17F07BEF17F074EF17F0C450046E08
:102EFA00036AC3500324016E000E0420026E1200FE
:102F0A0001C005F002C006F0032A0304046E04C0DF
:102F1A00F6FF060EF76E05C0D9FF06C0DAFF054AAE
:102F2A00062A0800F5CFDFFFDF50D8A49FEF17F07D
:102F3A00A1EF17F089EF17F01200B10E696EAFC05A
:102F4A006AF0000E6E6E000E6D6E000E756E000E4B
:102F5A00746E6A0E0001AC6FB0C0ADF0690EAE6F50
:102F6A0025EC17F00001AF516D24D96EDA6ADF6AD9
:102F7A0012000150021003100410D8B4C7EF17F062
:102F8A00C9EF17F0D1EF17F0000E011A000E021A5E
:102F9A00000E031A800E041A01C001F002C002F0EA
:102FAA0003C003F004C004F01200116E20EECDF04D
:102FBA0010EE0CF0040EDBCFE3FFE806FCE2000E95
:102FCA00046E000E036E11500C0FD96EDA6ADF50D0
:102FDA00056E000E076E280E066E000E44EC0EF00B
:102FEA001200928066EC18F00F0E0C6E060E0D6E33
:102FFA00280E44EC12F0000E65EC17F001C0C5F083
:10300A0002C0C6F0C5C0B5F0C6C0B6F0F0EC14F008
:10301A0000EF18F000EF00F01AEF18F00D50D96E1B
:10302A00DA6ADF5049EC18F00D2A0D50D96EDA6AC7
:10303A00DF50D8A423EF18F025EF18F013EF18F09B
:10304A00120001500302F3CF05F0F4CF06F001504D
:10305A000402F350062602500302F350062605C066
:10306A0001F006C002F01200040EE82EFED7010697
:10307A00D8A0020601500210D8A446EF18F048EF73
:10308A0018F039EF18F012000C6E000E046E000EE4
:10309A00036E0CC005F0000E076E2D0E066E010EB3
:1030AA0044EC0EF01200000E046E000E036E010EC8
:1030BA00056E070E076ED00E066E000E44EC0EF07B
:1030CA001200010EC26E0E0EC16EAA0EC06E120062
:0F30DA000302000000000C080F0E0D1C1814104C
:0230EA001200D2
:020000040030CA
:0E000000FF071F1EFF8385FF0FC00FE00F409C
:00000001FF
