:04000000AEEF3FF030
:107F5C000001B1EF3FF0000E936E000E816E928027
:107F6C009282000E046E000E036E80B0C0EF3FF0E4
:107F7C00C2EF3FF0DBEF3FF003500410D8A4C9EF81
:107F8C003FF0CBEF3FF0DBEF3FF0000E046E010E45
:107F9C00036E8168030E026E8A0E016E560EE82E79
:107FAC00FED7012EFCD7022EFAD780B2E0EF3FF0BD
:107FBC00E2EF3FF0BBEF3FF003040410D8A4E9EF6D
:107FCC003FF0EBEF3FF0BBEF3FF0000E046E000E06
:107FDC00036E000E816E030E026E8A0E016E560E3B
:107FEC00E82EFED7012EFCD7022EFAD7BBEF3FF0BE
:047FFC0000EF00F0A2
:020000040030CA
:0E000000FF071F1EFF8385FF0FC00FE00F409C
:00000001FF
