:0400000076EF03F0A4
:10060000000020EE12F010EE03F0090EDBCFE3FF46
:10061000E806FCE2030E116E000E946E000E956E5D
:100620009282000E826E000E836E1150D96EDA6ACD
:10063000DF50836E1150D96EDA6ADF50826E80B25D
:1006400024EF03F026EF03F015EF03F0820E016EA6
:10065000DE0EE82EFED7012EFCD7000E0E6E000E29
:100660000D6E11500D24D96EDA6ADF50836E000EC4
:10067000106E000E0F6E11500F24D96EDA6ADF5023
:10068000826E0D0E026EAF0E016EB60EE82EFED714
:10069000012EFCD7022EFAD700D00F4A102A10BE26
:1006A0005BEF03F0105009E10A0E0F5CD8A05BEF7E
:1006B00003F05DEF03F03BEF03F01150D96EDA6AFF
:1006C000DF50826E0D4A0E2A0EBE70EF03F00E5000
:1006D00009E1060E0D5CD8A070EF03F072EF03F095
:1006E00031EF03F015EF03F000EF00F0120EF66E9D
:1006F000070EF76E000EF86E00EE12F010EE0AF024
:100700000900F5CFEEFFE550E150FAE1000101EFFD
:0C07100003F03F065B4F666D7D077F6FB6
:020000040030CA
:0E000000FF071F1EFF8385FF0FC00FE00F409C
:00000001FF
