:0400000049EF03F0D1
:10060000000020EE0FF010EE03F0090EDBCFE3FF49
:10061000E806FCE2000E956E9282000E836E03C027
:1006200083FF80B216EF03F018EF03F00FEF03F033
:10063000820E016EDE0EE82EFED7012EFCD7000ED4
:100640000E6E010E0D6E0D50030FD96EDA6ADF507B
:10065000836E0D0E026EAF0E016EB60EE82EFED743
:10066000012EFCD7022EFAD700D00D4A0E2A0EBE5C
:1006700043EF03F00E5009E10A0E0D5CD8A043EFE2
:1006800003F045EF03F023EF03F00FEF03F000EF6B
:1006900000F0B80EF66E060EF76E000EF86E00EE65
:1006A0000FF010EE0AF00900F5CFEEFFE550E15033
:1006B000FAE1000101EF03F03F065B4F666D7D0735
:0206C0007F6F4A
:020000040030CA
:0E000000FF071F1EFF8385FF0FC00FE00F409C
:00000001FF
