:040000003AEF17F0CC
:10060000004672657175656E6369612028487A29B4
:1006100000252E33662000696E66006E616E000054
:10062000000E0001A16F4FC0A4F050C0A5F051C052
:10063000A6F052C0A7F0A7BF22EF03F020EF03F00F
:1006400036EF03F0010EA16FA4C001F0A5C002F0C7
:10065000A6C003F0A7C004F0AFEC18F001C0A4F0EE
:1006600002C0A5F003C0A6F004C0A7F0000E000170
:10067000A36F000EA26F75C091F076C092F0A151E9
:10068000D8B445EF03F047EF03F05BEF03F0A1515F
:10069000D8A44DEF03F04FEF03F055EF03F0000E39
:1006A000876F2B0E866F59EF03F0000E876F2D0EAC
:1006B000866F86C0A1F0A4C001F0A5C002F0A6C05C
:1006C00003F0A7C004F000EC15F001040210D8A458
:1006D0006CEF03F06EEF03F0A1EF03F00001A15106
:1006E000D8B475EF03F077EF03F080EF03F0A1C00B
:1006F00000F19107D8A09207000EA36F010EA26F20
:10070000000EA225016E010EA321026E170E036ECC
:10071000060E046E8FEC18F00001FD0E9127FF0EFF
:1007200092234DC011F04EC012F0000E136E010E58
:10073000146E91C015F092C016F0FDEC16F00CEF9F
:1007400008F0A4C001F0A5C002F0A6C003F0A7C045
:1007500004F000EC15F001500210D8A4B2EF03F041
:10076000B4EF03F0D4EF03F00001A151D8B4BBEF14
:1007700003F0BDEF03F0C6EF03F0A1C000F1910755
:10078000D8A09207000EA36F010EA26F000EA22543
:10079000016E010EA321026E1B0E036E060E046E87
:1007A0008FEC18F08CEF03F0000E0001A86F000E24
:1007B000A96F800EAA6F3F0EAB6F000E906F000EF8
:1007C0008F6FA4C001F0A5C002F0A6C003F0A7C0BF
:1007D00004F0000E056E000E066E000E076E000E91
:1007E000086EA8EC16F0D8B0F8EF03F0FAEF03F0BB
:1007F000D9EF04F007EF04F093C0A8F094C0A9F07B
:1008000095C0AAF096C0ABF000018F4B902BA8C00A
:1008100028F0A9C029F0AAC02AF0ABC02BF0000E26
:100820002C6E000E2D6E200E2E6E410E2F6E6DEC76
:100830000AF028C093F029C094F02AC095F02BC08C
:1008400096F000019351A45D016E9451A559026E7A
:100850009551A659036E9651A759046E70EC17F086
:1008600004BE3EEF04F004500310021009E1020E32
:10087000015CD8A03EEF04F040EF04F0FCEF03F081
:1008800093C041F094C042F095C043F096C044F04C
:10089000A4C045F0A5C046F0A6C047F0A7C048F0E8
:1008A0007EEC14F0D8A057EF04F059EF04F0FCEF01
:1008B00003F00001A851A45D016EA951A559026E73
:1008C000AA51A659036EAB51A759046E70EC17F0EC
:1008D00004BE78EF04F004500310021007E1020E8A
:1008E000015CD8B076EF04F078EF04F0C0EF04F0CC
:1008F000A8C0A4F0A9C0A5F0AAC0A6F0ABC0A7F0FC
:10090000D9EF04F0A8C00FF0A9C010F0AAC011F0F0
:10091000ABC012F0000E136E000E146E200E156E9A
:10092000410E166E82EC0CF00FC0A8F010C0A9F0BA
:1009300011C0AAF012C0ABF000018F07D8A0900739
:10094000A851A45D016EA951A559026EAA51A659DC
:10095000036EAB51A759046E70EC17F004BEBEEFE6
:1009600004F004500310021007E1020E015CD8B03D
:10097000BCEF04F0BEEF04F0C0EF04F078EF04F039
:10098000A4C041F0A5C042F0A6C043F0A7C044F007
:10099000A8C045F0A9C046F0AAC047F0ABC048F0D7
:1009A0007EEC14F0D8A0D7EF04F0D9EF04F082EF7A
:1009B00004F053C089F089C08AF078BEE2EF04F0F9
:1009C000E4EF04F0EAEF04F077C082F078C083F03F
:1009D000EFEF04F0000E0001836F060E826F82C0FD
:1009E0008DF083C08EF000018D4B8E2B660E8A1920
:1009F000D8A4FDEF04F0FFEF04F01FEF05F090BF67
:100A000006EF05F004EF05F012EF05F0000EA86FF9
:100A1000000EA96F800EAA6F3F0EAB6F000E906F95
:100A2000000E8F6F670E8919D8B419EF05F01BEF10
:100A300005F01FEF05F08F518D2790518E23000E8A
:100A4000986F000E976FA4C099F0A5C09AF0A6C049
:100A50009BF0A7C09CF0A8C093F0A9C094F0AAC0D6
:100A600095F0ABC096F0B0EF05F099C00FF09AC0CA
:100A700010F09BC011F09CC012F0A8C013F0A9C0E8
:100A800014F0AAC015F0ABC016F082EC0CF00FC049
:100A900028F010C029F011C02AF012C02BF099ECF8
:100AA00010F028C09DF029C09EF02AC09FF02BC0F6
:100AB000A0F09DC001F09EC002F09FC003F0A0C056
:100AC00004F0FBEC13F001C08BF002C08CF099C075
:100AD00041F09AC042F09BC043F09CC044F09DC0DE
:100AE0002CF09EC02DF09FC02EF0A0C02FF0A8C00B
:100AF00028F0A9C029F0AAC02AF0ABC02BF06DECF9
:100B00000AF028C045F029C046F02AC047F02BC0A3
:100B100048F04AEC18F041C099F042C09AF043C046
:100B20009BF044C09CF0A8C00FF0A9C010F0AAC070
:100B300011F0ABC012F0000E136E000E146E200EFA
:100B4000156E410E166E82EC0CF00FC0A8F010C0AE
:100B5000A9F011C0AAF012C0ABF00001974B982B7E
:100B60008D51975D9851800A546E8E51800A545869
:100B7000D8A0BDEF05F0BFEF05F035EF05F0A8C038
:100B800028F0A9C029F0AAC02AF0ABC02BF0000EB3
:100B90002C6E000E2D6EA00E2E6E400E2F6E6DEC84
:100BA0000AF028C09DF029C09EF02AC09FF02BC0FB
:100BB000A0F099C041F09AC042F09BC043F09CC0A5
:100BC00044F09DC045F09EC046F09FC047F0A0C0D5
:100BD00048F07EEC14F0D8B0F0EF05F0F2EF05F03D
:100BE000FDEF05F0000E00019D6F000E9E6F000EE0
:100BF0009F6F000EA06F26EF06F099C001F09AC01B
:100C000002F09BC003F09CC004F09DC005F09EC0A4
:100C100006F09FC007F0A0C008F0A8EC16F0D8A01E
:100C200014EF06F016EF06F026EF06F000018BB188
:100C30001CEF06F01EEF06F026EF06F0000E9D6F8B
:100C4000000E9E6F000E9F6F000EA06FA4C001F0FB
:100C5000A5C002F0A6C003F0A7C004F09DC005F037
:100C60009EC006F09FC007F0A0C008F00DEC08F091
:100C700001C099F002C09AF003C09BF004C09CF040
:100C800099C041F09AC042F09BC043F09CC044F030
:100C9000000E2C6E000E2D6E200E2E6E410E2F6E4D
:100CA00093C028F094C029F095C02AF096C02BF08C
:100CB0006DEC0AF028C045F029C046F02AC047F084
:100CC0002BC048F07EEC14F0D8A069EF06F06BEF73
:100CD00006F094EF06F000018F4B902B93C028F0A4
:100CE00094C029F095C02AF096C02BF0000E2C6E0F
:100CF000000E2D6E200E2E6E410E2F6E6DEC0AF042
:100D000028C093F029C094F02AC095F02BC096F02B
:100D1000660E00018A19D8A490EF06F092EF06F053
:100D200094EF06F08D4B8E2B93C0A8F094C0A9F0E1
:100D300095C0AAF096C0ABF08FC080F090C081F053
:100D4000000E0001886F000E856F000E846F000E8C
:100D5000986F000E976F92EF07F099C00FF09AC04E
:100D600010F09BC011F09CC012F0A8C013F0A9C0F5
:100D700014F0AAC015F0ABC016F082EC0CF00FC056
:100D800028F010C029F011C02AF012C02BF099EC05
:100D900010F028C09DF029C09EF02AC09FF02BC003
:100DA000A0F09DC001F09EC002F09FC003F0A0C063
:100DB00004F0FBEC13F002BEE9EF06F0025007E18D
:100DC0000A0E015CD8B0E7EF06F0E9EF06F0F9EFA4
:100DD00006F09DC001F09EC002F09FC003F0A0C0CD
:100DE00004F0FBEC13F001C08BF002C08CF0FEEFBE
:100DF00006F0000E00018C6F090E8B6F0001885108
:100E0000D8A405EF07F007EF07F02FEF07F081BF39
:100E10000EEF07F00CEF07F02FEF07F0000EA22502
:100E2000D96E010EA321DA6E2E0EDF6EA24BA32B1C
:100E30009107D8A09207010E886F2FEF07F0000EE0
:100E4000A225D96E010EA321DA6E300EDF6EA24B01
:100E5000A32B9107D8A092078407D8A085078451B7
:100E60008511D8A436EF07F038EF07F01FEF07F031
:100E7000000EA225D96E010EA321DA6E8B51300F20
:100E8000DF6EA24BA32B9107D8A0920799C041F027
:100E90009AC042F09BC043F09CC044F09DC02CF02F
:100EA0009EC02DF09FC02EF0A0C02FF0A8C028F04B
:100EB000A9C029F0AAC02AF0ABC02BF06DEC0AF053
:100EC00028C045F029C046F02AC047F02BC048F0A2
:100ED0004AEC18F041C099F042C09AF043C09BF030
:100EE00044C09CF0A8C00FF0A9C010F0AAC011F037
:100EF000ABC012F0000E136E000E146E200E156EB5
:100F0000410E166E82EC0CF00FC0A8F010C0A9F0D4
:100F100011C0AAF012C0ABF000018007D8A0810771
:100F2000974B982B8D51975D9851800A546E8E5136
:100F3000800A5458D8B09FEF07F0A1EF07F0AFEF49
:100F400007F0A3BFADEF07F0A35109E14B0EA25D7F
:100F5000D8A0ADEF07F0AFEF07F0ADEF06F0000E51
:100F6000986F4F0E976F000E9725D96E010E98213E
:100F7000DA6EDF6A000E546E010E556EA251545E99
:100F8000A351555A97515424016E98515520026E21
:100F9000000E036E010E046EA2C005F0A3C006F0A1
:100FA00022EC18F00001A251975DA26FA35198594D
:100FB000A36FA151D8A4DFEF07F0E2EF07F0010E15
:100FC000E3EF07F0000E976F986BA151D8B4EBEFE9
:100FD00007F0EDEF07F0F8EF07F0A207D8A0A3079E
:100FE000000EA225D96E010EA321DA6EA1C0DFFF8B
:100FF0009751915F9851925B4DC011F04EC012F025
:10100000000EA225136E010EA321146E91C015F0DF
:1010100092C016F0FDEC16F012000450800B0D6E1D
:10102000045004240F6E03AE18EF08F01AEF08F016
:101030001BEF08F00F800F50D8B421EF08F023EF1A
:1010400008F038EF08F00F28D8A429EF08F02BEFAC
:1010500008F033EF08F0000E016E000E026E000E75
:10106000036E000E046E038E000E046E40EF08F057
:10107000000E016E000E026E000E036E000E046E76
:101080000850800B0E6E0D500E18D8B44AEF08F0C1
:101090004CEF08F04DEF08F00D8C085008240E6E50
:1010A00007AE55EF08F057EF08F058EF08F00E8044
:1010B0000E50D8B45EEF08F060EF08F075EF08F05E
:1010C0000E28D8A466EF08F068EF08F070EF08F07B
:1010D000000E056E000E066E000E076E000E086E06
:1010E000078E000E086E7DEF08F0000E056E000EF4
:1010F000066E000E076E000E086E0F500E5CD8B024
:1011000084EF08F086EF08F0ADEF08F00DAC8BEF40
:1011100008F08DEF08F08FEF08F0800E0D1A0FC069
:1011200010F00EC00FF010C00EF001C010F005C09E
:1011300001F010C005F002C010F006C002F010C0AF
:1011400006F003C010F007C003F010C007F004C0A1
:1011500010F008C004F010C008F0000E106E0F5020
:101160000EC009F00A6A095E000E0A5A0ABEC2EFF2
:1011700008F00A5009E11A0E095CD8A0C2EF08F085
:10118000C4EF08F0FBEF08F0015002100310041048
:10119000D8A4CDEF08F0D0EF08F0010ED1EF08F0A1
:1011A000000E106E000E016E000E026E000E036E39
:1011B000000E046E0EC00FF004EF09F010A0E3EF74
:1011C00008F0E5EF08F0EBEF08F0D89010300109D7
:1011D000106EEDEF08F0D890103201A0F2EF08F099
:1011E000F4EF08F0F5EF08F0108E04340432033207
:1011F000023201320F2A0E500F5CD8A002EF09F024
:1012000004EF09F0DEEF08F00DBC09EF09F00BEF79
:1012100009F04BEF09F00F50D8A411EF09F013EFCC
:1012200009F01DEF09F0000E016E000E026E000EB7
:10123000036E000E046E6CEF0AF005500126065096
:101240000222075003220850042204A02AEF09F0CA
:101250002CEF09F0D8EF09F010A031EF09F033EFCF
:1012600009F039EF09F0D89010300109106E3BEF0A
:1012700009F0D890103201A040EF09F042EF09F0D8
:1012800043EF09F0108E043404320332023201328B
:101290000F2AD8EF09F00550015C0650025807509C
:1012A00003580450800A096E0850800A0958D8B0C3
:1012B0005CEF09F05EEF09F089EF09F00150055C81
:1012C000096E025006580A6E035007580B6E045000
:1012D00008580C6EFF0E0924016EFF0E0A20026EE4
:1012E000FF0E0B20036EFF0E0C20046E800E0D1AF5
:1012F000106C1050D8A47FEF09F081EF09F091EF46
:1013000009F0010E0126000E02220322042291EFB1
:1013100009F00550015E0650025A0750035A085062
:10132000045A0150021003100410D8A49AEF09F0D7
:101330009CEF09F0D1EF09F01050D8A4A2EF09F00A
:10134000A4EF09F0D1EF09F0000E016E000E026E5D
:10135000000E036E000E046E6CEF0AF0D89001369A
:1013600002360336043610AEB8EF09F0BAEF09F0D2
:10137000BBEF09F0018010A0C0EF09F0C2EF09F047
:10138000C6EF09F0D8801036C8EF09F0D8901036B3
:101390000F50D8B4CEEF09F0D0EF09F0D1EF09F03B
:1013A0000F0603AED6EF09F0D8EF09F0AEEF09F063
:1013B000000E0E6E10AEDFEF09F0E1EF09F0F9EF6D
:1013C00009F010C009F07F0E0916D8B4EAEF09F051
:1013D000ECEF09F0F0EF09F0010E0E6EF9EF09F0F5
:1013E00001A0F5EF09F0F7EF09F0F9EF09F0ECEFE4
:1013F00009F00E50D8B4FFEF09F001EF0AF02CEF1E
:101400000AF0010E0126000E02220322042204A08B
:101410000CEF0AF00EEF0AF02CEF0AF001C009F011
:1014200002C00AF003C00BF004C00CF00C340C3204
:101430000B320A32093209C001F00AC002F00BC0B7
:1014400003F00CC004F00F28D8B429EF0AF02BEFFA
:101450000AF02CEF0AF00F2A0F28D8B432EF0AF066
:1014600034EF0AF03CEF0AF00F50D8A43AEF0AF03C
:101470003CEF0AF04EEF0AF0000E016E000E026E15
:10148000000E036E000E046E0F50D8A44AEF0AF04F
:101490004CEF0AF04EEF0AF0000E0D6E0FA053EF66
:1014A0000AF055EF0AF058EF0AF0038E59EF0AF0F0
:1014B000039ED8900F30046E0DAE61EF0AF063EF1B
:1014C0000AF064EF0AF0048E01C001F002C002F0DD
:1014D00003C003F004C004F012002B50800B346EE4
:1014E0002B502B243A6E2AAE78EF0AF07AEF0AF0EE
:1014F0007BEF0AF03A803A50D8B481EF0AF083EFDC
:101500000AF096EF0AF03A28D8A489EF0AF08BEF98
:101510000AF093EF0AF0000E286E000E296E000EFE
:101520002A6E000E2B6E2A8E9EEF0AF0000E286E99
:10153000000E296E000E2A6E000E2B6E2F50800BAF
:10154000341A2F502F24396E2EAEA9EF0AF0ABEFCC
:101550000AF0ACEF0AF039803950D8B4B2EF0AF093
:10156000B4EF0AF0C7EF0AF03928D8A4BAEF0AF0AE
:10157000BCEF0AF0C4EF0AF0000E2C6E000E2D6EC8
:10158000000E2E6E000E2F6E2E8ECFEF0AF0000E84
:101590002C6E000E2D6E000E2E6E000E2F6E39502A
:1015A000D8B4D5EF0AF0D7EF0AF0DFEF0AF03A50DF
:1015B000D8A4DDEF0AF0DFEF0AF0E9EF0AF0000E41
:1015C000286E000E296E000E2A6E000E2B6E81EF23
:1015D0000CF02E502802F3CF3FF0F4CF40F03F50F4
:1015E000356E366A376A386A40503B6E3C6A3D6AEF
:1015F0003E6A2D502902F3CF3FF0F4CF40F03F5028
:101600003526000E36223722382240503B26000E67
:101610003C223D223E222C502A02F3CF3FF0F4CF51
:1016200040F03F503526000E3622372238224050F7
:101630003B26000E3C223D223E2237C038F036C009
:1016400037F035C036F0356A2C502902F3CF3FF021
:10165000F4CF40F03F50352640503622000E37225E
:10166000000E38222D502802F3CF3FF0F4CF40F087
:101670003F50352640503622000E3722000E3822C9
:1016800037C038F036C037F035C036F0356A2C50E8
:101690002802F3CF3FF0F4CF40F03F5035264050C2
:1016A0003622000E3722000E38222E502902F3CFA8
:1016B0003FF0F4CF40F03F503B2640503C22000E1C
:1016C0003D22000E3E222D502A02F3CF3FF0F4CFF0
:1016D00040F03F503B2640503C22000E3D22000E81
:1016E0003E222E502A02F3CF3FF0F4CF40F03F507D
:1016F000306E4050316E326A336A32C033F031C0DE
:1017000032F030C031F0306A30503B2631503C224C
:1017100032503D2233503E2235C030F036C031F0D9
:1017200037C032F038C033F0190E9CEF0BF0D89070
:101730003332323231323032E82E97EF0BF0305004
:101740003B2631503C2232503D2233503E2237C09E
:1017500038F036C037F035C036F0356A39503AC007
:1017600030F0316A3026000E3122820E30243F6E76
:10177000FF0E3120406ED2EF0BF0D8903B363C3656
:101780003D363E3638AEC7EF0BF0C9EF0BF0CAEF6F
:101790000BF03B80D89035363636373638363F0634
:1017A000D8A040063DAED7EF0BF0D9EF0BF0BDEF60
:1017B0000BF0000E396E38AEE0EF0BF0E2EF0BF0FD
:1017C00006EF0CF0FF0E3514306EFF0E3614316E3E
:1017D000FF0E3714326E7F0E3814336E30503110D6
:1017E00032103310D8B4F7EF0BF0F9EF0BF0FDEF38
:1017F0000BF0010E396E06EF0CF03BA002EF0CF07F
:1018000004EF0CF006EF0CF0F9EF0BF03950D8B400
:101810000CEF0CF00EEF0CF032EF0CF0010E3B264B
:10182000000E3C223D223E223EA019EF0CF01BEFA1
:101830000CF032EF0CF03BC030F03CC031F03DC05A
:1018400032F03EC033F03334333232323132303260
:1018500030C03BF031C03CF032C03DF033C03EF010
:101860003F4A402A40BE3DEF0CF0405008E13F287F
:10187000D8A03DEF0CF03FEF0CF049EF0CF0000E5C
:101880003B6E000E3C6E800E3D6E7F0E3E6E77EF1F
:101890000CF040BE56EF0CF0405006E13F04D8B0CB
:1018A00054EF0CF056EF0CF062EF0CF0000E3B6EB4
:1018B000000E3C6E000E3D6E000E3E6E000E346E4D
:1018C00077EF0CF03FC03AF0FF0E3B16FF0E3C16D0
:1018D0007F0E3D16000E3E163AA071EF0CF073EF2E
:1018E0000CF074EF0CF03D8ED8903A303E6E3450D0
:1018F0003E123BC028F03CC029F03DC02AF03EC05B
:101900002BF012001250800B1F6E12501224266E04
:1019100011AE8DEF0CF08FEF0CF090EF0CF02680F5
:101920002650D8B496EF0CF098EF0CF0ADEF0CF019
:101930002628D8A49EEF0CF0A0EF0CF0A8EF0CF036
:10194000000E0F6E000E106E000E116E000E126E65
:10195000118E000E126EB5EF0CF0000E0F6E000E21
:10196000106E000E116E000E126E1650800B1F1AB4
:1019700016501624276E15AEC0EF0CF0C2EF0CF017
:10198000C3EF0CF027802750D8B4C9EF0CF0CBEF91
:101990000CF0E0EF0CF02728D8A4D1EF0CF0D3EF37
:1019A0000CF0DBEF0CF0000E136E000E146E000E48
:1019B000156E000E166E158E000E166EE8EF0CF00A
:1019C000000E136E000E146E000E156E000E166ED5
:1019D0001350141015101610D8A4F1EF0CF0F3EFFB
:1019E0000CF00BEF0DF0000E0F6E000E106E000EDF
:1019F000116E000E126E800E11127F0E12121F5009
:101A000012120FC00FF010C010F011C011F012C070
:101A100012F04EEF0EF02650D8A411EF0DF013EF98
:101A20000DF01DEF0DF0000E0F6E000E106E000E8B
:101A3000116E000E126E4EEF0EF0275026C017F0FA
:101A4000186A175E000E185A7F0E1724206E000EBB
:101A50001820216E0FC01BF010C01CF011C01DF02B
:101A600012C01EF0000E0F6E000E106E000E116EF2
:101A7000000E126E000E226E000E236E000E246EFB
:101A8000000E256E000E276E7EEF0DF02750D8B4A5
:101A90004CEF0DF04EEF0DF065EF0DF0D8901B36CA
:101AA0001C361D361E36D8900F36103611361236BB
:101AB00025AE5DEF0DF05FEF0DF060EF0DF00F80E4
:101AC000D890223623362436253613501B5C14500A
:101AD0001C5815501D5816501E58D8A072EF0DF006
:101AE00074EF0DF07DEF0DF0258C13501B5E14503C
:101AF0001C5A15501D5A16501E5A272A190E2764B3
:101B000084EF0DF086EF0DF046EF0DF01B501C102A
:101B10001D101E10D8B48FEF0DF091EF0DF0A9EF4E
:101B20000DF02280A9EF0DF0D8900F361036113647
:101B3000123625AE9EEF0DF0A0EF0DF0A1EF0DF0E7
:101B40000F80D89022362336243625362006D8A09A
:101B5000210611AEAEEF0DF0B0EF0DF094EF0DF0E9
:101B6000000E276E25AEB7EF0DF0B9EF0DF0DDEFEB
:101B70000DF0FF0E2214176EFF0E2314186EFF0EC9
:101B80002414196E7F0E25141A6E17501810191090
:101B90001A10D8B4CEEF0DF0D0EF0DF0D4EF0DF059
:101BA000010E276EDDEF0DF00FA0D9EF0DF0DBEF8A
:101BB0000DF0DDEF0DF0D0EF0DF02750D8B4E3EFCE
:101BC0000DF0E5EF0DF009EF0EF0010E0F26000EFF
:101BD00010221122122212A0F0EF0DF0F2EF0DF000
:101BE00009EF0EF00FC017F010C018F011C019F077
:101BF00012C01AF01A341A3219321832173217C0BA
:101C00000FF018C010F019C011F01AC012F0204ADD
:101C1000212A21BE14EF0EF0215008E12028D8A07F
:101C200014EF0EF016EF0EF021EF0EF0000E216E05
:101C30002068000E0F6E000E106E000E116E000E6A
:101C4000126E21BE2EEF0EF0215006E12004D8B016
:101C50002CEF0EF02EEF0EF03CEF0EF0000E216E8A
:101C6000000E206E000E0F6E000E106E000E116E34
:101C7000000E126E000E1F6E20C026F026A043EF4D
:101C80000EF045EF0EF048EF0EF0118E49EF0EF01A
:101C9000119ED8902630126EFFEF0CF0120058C043
:101CA000D9FF59C0DAFFDECFF6FFDDCFF7FF08001E
:101CB000F550250AD8A45FEF0EF061EF0EF06CEF3F
:101CC0000FF058C0D9FF59C0DAFFDE2A000EDD221E
:101CD000000E766E000E756E75C079F077687868C4
:101CE00058C0D9FF59C0DAFFDECFF6FFDDCFF7FFCE
:101CF0000800F5502E0AD8A480EF0EF082EF0EF007
:101D000097EF0EF058C0D9FF59C0DAFFDE2A000E57
:101D1000DD2258C007F059C008F05AC009F05BC076
:101D20000AF0E4EC15F007C077F008C078F058C06E
:101D3000D9FF59C0DAFFDECF63F0DDCF64F063C0B6
:101D4000F6FF64C0F7FF0800F5CF62F0B4EF0EF0C5
:101D5000634A642ACDEF0EF06C0E626ECDEF0EF08A
:101D6000000E626ECDEF0EF062505C6E5D6A5D50EB
:101D7000000AD8B4BEEF0EF0B0EF0EF05C504C0A83
:101D8000D8B4A8EF0EF02A0AD8B4ACEF0EF00A0AC5
:101D9000D8B4A8EF0EF0B0EF0EF063C0F6FF64C049
:101DA000F7FF0800F550660AD8A4D9EF0EF0DBEF74
:101DB0000EF063EF0FF011EF0FF05AC0D9FF5BC0C8
:101DC000DAFFDFCF5CF0040EDE26DFCF5DF0000E21
:101DD000DD225CC0D9FF5DC0DAFFDECF5EF0DECF72
:101DE0005FF0DECF60F0DECF61F026EF0FF05AC07B
:101DF000D9FF5BC0DAFFDFCF5CF0040EDE26DFCF59
:101E00005DF0000EDD225CC0D9FF5DC0DAFFDECFE1
:101E10005EF0DECF5FF0DECF60F0DECF61F026EF68
:101E20000FF062505C6E5D6A5D50000AD8B41BEF23
:101E30000FF026EF0FF05C504C0AD8B4F7EF0EF01D
:101E4000200AD8B4DDEF0EF026EF0FF0010E632468
:101E50005C6E000E64205D6E58C0D9FF59C0DAFF79
:101E60005CC0DEFF5DC0DDFF4DEF0FF056C04DF0F2
:101E700057C04EF05EC04FF05FC050F060C051F0F0
:101E800061C052F063C0F6FF64C0F7FF0800F5CFF1
:101E900053F010EC03F080EF0FF063C0F6FF64C066
:101EA000F7FF0800F5505C6E5D6A5D50000AD8B41B
:101EB0005CEF0FF063EF0FF05C50660AD8B436EFBA
:101EC0000FF063EF0FF058C0D9FF59C0DAFFDE2AD8
:101ED000000EDD2280EF0FF058C0D9FF59C0DAFFA5
:101EE000DECFF6FFDDCFF7FF0800F550016E026A86
:101EF00056C003F057C004F07FEC15F063EF0FF00D
:101F000012000A6E95949598959A959C959E959237
:101F100095900AB002D0839001D0838003B002D0A4
:101F2000839201D0838203500410D8A49AEF0FF05B
:101F30009CEF0FF017EF10F0086A05AE01D0082AE9
:101F40000846084683500818FB0B0818836E05C026
:101F500008F0060E096ED8900832092EABEF0FF08C
:101F6000083A83500818EF0B0818836E05C008F074
:101F7000050E096ED8900832092EBAEF0FF0083A14
:101F8000084683500818DF0B0818836E05C008F058
:101F9000083A0F0E0816083A0846084683500818F3
:101FA000BF0B0818836E838E000E026E020E016E48
:101FB000DEEC18F0839E05C008F0D8900832D89067
:101FC0000832D89008320846084683500818FB0BA0
:101FD0000818836E05C008F0D8900832D8900832EF
:101FE000083A83500818EF0B0818836E05C008F0F4
:101FF000D8900832083A084683500818DF0B0818B2
:10200000836E05B002D0839C01D0838C838E000E3A
:10201000026E020E016EDEEC18F0839E06C001F027
:1020200007C002F0DEEC18F0000E98EF10F0958477
:102030009588958A958C838E000E026E020E016E35
:10204000DEEC18F0000E83B4010E0B6E83B82BEF9C
:1020500010F02FEF10F0086A082A30EF10F0086A2D
:102060000B500B2408100B6E83BA39EF10F03DEFC4
:1020700010F0086A082A3EEF10F0086A0B500B2493
:1020800008100B6E83BC47EF10F04BEF10F0086A9E
:10209000082A4CEF10F0086A0B500B2408100B6E46
:1020A000839E838E000E026E020E016EDEEC18F02F
:1020B00083B45DEF10F061EF10F0086A082A62EF58
:1020C00010F0086A0B500B2408100B6E83B86BEFEE
:1020D00010F06FEF10F0086A082A70EF10F0086A2D
:1020E0000B500B2408100B6E83BA79EF10F07DEFC4
:1020F00010F0086A082A7EEF10F0086A0B500B24D3
:1021000008100B6E83BC87EF10F08BEF10F0086A9D
:10211000082A8CEF10F0086A0B500B2408100B6E85
:10212000839E06C001F007C002F0DEEC18F00B50F1
:102130001200E9C038F0EAC039F0EBC03AF0ECC068
:102140003BF028C038F029C039F02AC03AF02BC043
:102150003BF0810E2C6EFF0E2D6E38C02EF039C074
:102160002FF03AC030F03BC031F0180EBDEF10F048
:10217000D890313230322F322E32E82EB8EF10F0B4
:102180002E502C24366E000E2D20376E37BED2EF27
:1021900010F0375009E1170E365CD8A0D2EF10F0DE
:1021A000D4EF10F0DEEF10F028C028F029C029F09D
:1021B0002AC02AF02BC02BF0A1EF11F037BEE3EFBD
:1021C00010F0E5EF10F055EF11F036C02CF0FF0ED7
:1021D0002D6EFF0E2E6E7F0E2F6E000E306E2C6653
:1021E000F4EF10F0FCEF10F0303430322F322E329A
:1021F0002D322C2EEFEF10F02DC032F02EC033F028
:102200002FC034F030C035F0325038142C6E3350BB
:1022100039142D6E34503A142E6E35503B142F6EF7
:102220002C502D102E102F10D8A419EF11F01BEFE9
:1022300011F01DEF11F0D4EF10F038C02CF039C0C0
:102240002DF03AC02EF03BC02FF0200E2DEF11F0F4
:10225000D8902F322E322D322C32E82E28EF11F06A
:102260002C502D102E102F10D8B439EF11F03BEF59
:1022700011F043EF11F032503826335039223450E8
:102280003A2235503B22321C2C6E331C2D6E341CEE
:102290002E6E351C2F6E2C5038162D5039162E50A0
:1022A0003A162F503B1699EF11F038C02CF039C078
:1022B0002DF03AC02EF03BC02FF0200E65EF11F04C
:1022C000D8902F322E322D322C32E82E60EF11F0C2
:1022D0002C502D102E102F10D8A471EF11F073EF89
:1022E00011F07DEF11F0000E386E000E396E000E09
:1022F0003A6E000E3B6E99EF11F0D89038342C6E88
:1023000039342D6E3A342E6E3B342F6E2C502D10F6
:102310002E102F10D8B48FEF11F091EF11F099EF2C
:1023200011F0000E386E000E396E800E3A6EBF0E40
:102330003B6E38C028F039C029F03AC02AF03BC0C3
:102340002BF01200096E0950D8B4A9EF11F0ABEFD1
:1023500011F0CDEF11F004BEB2EF11F0B0EF11F0BB
:10236000CDEF11F001C005F002C006F003C007F088
:1023700004C008F0051E061E071E081E052A000ED2
:1023800006220722082205C00BF006C00CF007C089
:102390000DF008C00EF0D5EF11F001C00BF002C037
:1023A0000CF003C00DF004C00EF001500210031039
:1023B0000410D8A4DEEF11F0E0EF11F0EAEF11F015
:1023C000000E016E000E026E000E036E000E046E13
:1023D0007BEF12F0960E0A6EF4EF11F00A2AD890F5
:1023E0000E320D320C320B32000E0B14056E000E45
:1023F0000C14066E000E0D14076EFE0E0E14086E01
:102400000550061007100810D8A409EF12F00BEFC2
:1024100012F0EEEF11F019EF12F00A2A010E0B265E
:10242000000E0C220D220E22D8900E320D320C32EC
:102430000B32000E0B14056E000E0C14066E000E0F
:102440000D14076EFF0E0E14086E055006100710CF
:102450000810D8A42EEF12F030EF12F00DEF12F0AA
:1024600038EF12F00A06D8900B360C360D360E36C1
:102470000DBE3DEF12F03FEF12F047EF12F0020EEB
:102480000A6045EF12F047EF12F032EF12F00AB097
:102490004CEF12F04EEF12F04FEF12F00D9ED8906D
:1024A0000A320AC005F0066A076A086A05C008F021
:1024B000076A066A056A05500B1206500C1207508F
:1024C0000D1208500E120950D8B469EF12F06BEFDC
:1024D00012F073EF12F004BE72EF12F070EF12F010
:1024E00073EF12F00E8E0BC001F00CC002F00DC0A5
:1024F00003F00EC004F012000F6E20EEDEF010EEBE
:1025000010F0050EDBCFE3FFE806FCE20FC012F08F
:102510000CC013F00DC014F095949598959A959C65
:10252000959E9592959083908392839E4E0E026E17
:10253000200E016EDEEC18F0000E166E10C00EF0CC
:10254000D8900E32D8900E32D8900E320E460E46EB
:1025500083500E18FB0B0E18836E10C00EF0D8902F
:102560000E32D8900E320E3A83500E18EF0B0E1822
:10257000836E10C00EF0D8900E320E3A0E46835085
:102580000E18DF0B0E18836E10B002D0839C01D0A2
:10259000838C838E000E026E020E016EDEEC18F04C
:1025A000839E130E026E880E016EDEEC18F0162A62
:1025B000020E1664DEEF12F0E0EF12F09EEF12F062
:1025C00011C00EF0D8900E32D8900E32D8900E3244
:1025D0000E460E4683500E18FB0B0E18836E11C06C
:1025E0000EF0D8900E32D8900E320E3A83500E185C
:1025F000EF0B0E18836E11C00EF0D8900E320E3A0B
:102600000E4683500E18DF0B0E18836E11B002D0E9
:10261000839C01D0838C838E000E026E020E016EAD
:10262000DEEC18F0839E000E026E280E016EDEECCA
:1026300018F0000E046E000E036E12C005F0000EBE
:10264000076E280E066E000E81EC0FF0000E046E71
:10265000000E036E13C005F0000E076E280E066E06
:10266000000E81EC0FF0000E046E000E036E14C01D
:1026700005F0000E076E280E066E000E81EC0FF0BE
:10268000FDEC18F01200000E956E000E836E0F0E1A
:102690000C6E060E0D6E280E7CEC12F0010E0D6E07
:1026A000060E0E6EA3EC17F09484050EBD6E000EA0
:1026B000BF6E000EBE6E9D849E94800ECD6E000E89
:1026C000CF6E000ECE6E9E90CD809EA46AEF13F06A
:1026D0006CEF13F065EF13F09E94BECFD6F0BFCF32
:1026E000D7F00001D86BD96B9EA479EF13F07BEF84
:1026F00013F074EF13F09E94BECFDAF0BFCFDBF08F
:102700000001DC6BDD6BDA51D65DDB51D759DC5152
:10271000D859DD51D959D8B090EF13F092EF13F09A
:10272000F3EF13F0D651DA5DCE6FD751DB59CF6F8F
:10273000D851DC59D06FD951DD59D16FCEC001F0DD
:10274000CFC002F0D0C003F0D1C004F0000EA2EC64
:1027500011F001C013F002C014F003C015F004C062
:1027600016F0000E0F6E000E106E800E116E3F0EF2
:10277000126E82EC0CF00FC028F010C029F011C0CE
:102780002AF012C02BF0000E2C6E1B0E2D6E370E91
:102790002E6E4B0E2F6E6DEC0AF028C0D2F029C0C1
:1027A000D3F02AC0D4F02BC0D5F0BA0E0001B26F1E
:1027B000000EB36F110EB46F060EB56FD2C0B6F037
:1027C000D3C0B7F0D4C0B8F0D5C0B9F0D2EC17F090
:1027D000010E0C6E020E47EC16F0BA0E0D6E000ED6
:1027E0000E6EA3EC17F0000ECF6E000ECE6E65EFEE
:1027F00013F000EF00F0033404340A6E0A50D8A43A
:1028000004EF14F006EF14F010EF14F0000E016E58
:10281000000E026E000E036E000E046E7DEF14F0CB
:1028200001C005F002C006F003C007F004C008F0C4
:10283000200E20EF14F0D89008320732063205320D
:10284000E82E1BEF14F00550096E038EFF0E0116E3
:10285000FF0E0216FF0E0316000E0416960E0A5EF9
:102860000ABE37EF14F035EF14F04DEF14F00A50B4
:10287000800A970FD8B03FEF14F041EF14F043EF08
:1028800014F006EF14F0D890043203320232013211
:102890000A3E43EF14F065EF14F01F0E0A6453EF85
:1028A00014F055EF14F05DEF14F006EF14F0D8902B
:1028B00001360236033604360A060A50D8A463EFFE
:1028C00014F065EF14F057EF14F00950D8B46BEF23
:1028D00014F06DEF14F075EF14F0041E031E021EC9
:1028E000016C000E02220322042201C001F002C08A
:1028F00002F003C003F004C004F01200000E411403
:10290000496E000E42144A6E800E43144B6E7F0EC9
:1029100044144C6E49504A104B104C10D8A493EFFD
:1029200014F095EF14F09DEF14F0000E416E000EC0
:10293000426E000E436E000E446E000E4514496E4A
:10294000000E46144A6E800E47144B6E7F0E4814DC
:102950004C6E49504A104B104C10D8A4B2EF14F0F2
:10296000B4EF14F0BCEF14F0000E456E000E466E8E
:10297000000E476E000E486E44AEC1EF14F0C3EF78
:1029800014F0CCEF14F0416C421ED8B0422A431E22
:10299000D8B0432A800E445648AED1EF14F0D3EF9E
:1029A00014F0DCEF14F0456C461ED8B0462A471EE2
:1029B000D8B0472A800E4856000E411A000E421A1F
:1029C000000E431A800E441A000E451A000E461AD5
:1029D000000E471A800E481A4550415C4650425836
:1029E0004750435848504458D8B0F9EF14F0FBEF23
:1029F00014F0FEEF14F0D890FFEF14F0D88012001E
:102A0000EDC00BF0EEC00CF0EFC00DF0F0C00EF01A
:102A100001C00BF002C00CF003C00DF004C00EF0BA
:102A20000BC005F00CC006F00DC007F00EC008F09A
:102A3000180E20EF15F0D890083207320632053212
:102A4000E82E1BEF15F00550096E0A6A09500A10AE
:102A5000D8A42DEF15F02FEF15F04FEF15F0D8900B
:102A60000B34056E0C34066E0D34076E0E34086E92
:102A70000550061007100810D8A441EF15F043EFD9
:102A800015F049EF15F0000E026E020E016E7EEF9A
:102A900015F0000E026E030E016E7EEF15F0092890
:102AA0000A10D8A456EF15F058EF15F07AEF15F08C
:102AB0000BC005F00CC006F00DC007F00EC008F00A
:102AC000090ED8900536063607360836E82E61EF2F
:102AD00015F00550061007100810D8B472EF15F065
:102AE00075EF15F0010E76EF15F0000E016E026A1B
:102AF0007EEF15F0000E026E040E016E1200035000
:102B00000410D8B486EF15F088EF15F091EF15F0AA
:102B100003500410D8A48FEF15F091EF15F096EF45
:102B200015F0015013EC19F0E3EF15F020EE0AF068
:102B30000350D9260450DA22DE50DE10D8B4A3EFB9
:102B400015F0A5EF15F0C0EF15F020EE0AF00350D8
:102B5000D9260450DA2210EE03F00350E126045087
:102B6000E222DE50E65CE650800A096EDE50800A02
:102B70000958D8B0BEEF15F0C0EF15F0E3EF15F02F
:102B800020EE03F00350D9260450DA22DECF05F000
:102B9000DDCF06F003C0D9FF04C0DAFFDECF07F0B7
:102BA000DDCF08F005500724D96E06500820DA6EF4
:102BB00001C0DFFF20EE03F00350D9260450DA22D3
:102BC000DE2A000EDD221200000E0F6E000E0E6EC9
:102BD00007C0D9FF08C0DAFFDECFF6FFDDCFF7FF71
:102BE0000800F5502A0AD8A4F8EF15F0FAEF15F00E
:102BF0002EEF16F007C0D9FF08C0DAFFDE2A000E5C
:102C0000DD2209C0D9FF0AC0DAFFDFCF0BF0020EC8
:102C1000DE26DFCF0CF0000EDD220BC0D9FF0CC08A
:102C2000DAFFDECF0EF0DDCF0FF042EF16F00EC070
:102C300001F00FC002F0000E046E0A0E036ECBEC22
:102C400018F00D5001240E6E000E02200F6E07C00A
:102C5000D9FF08C0DAFFDE2A000EDD2207C0D9FF47
:102C600008C0DAFFDECFF6FFDDCFF7FF0800F55032
:102C7000D00F0D6E090E0D6440EF16F042EF16F006
:102C800017EF16F00EC007F00FC008F012000F6E1D
:102C90008AEF16F0000E046E000E036E0C507F0FCC
:102CA000056E000E076E280E066E000E81EC0FF00A
:102CB000A7EF16F0000E046E000E036E0C50BF0F4F
:102CC000056E000E076E280E066E000E81EC0FF0EA
:102CD000A7EF16F0000E046E000E036E0C50930F5B
:102CE000056E000E076E280E066E000E81EC0FF0CA
:102CF000A7EF16F0000E046E000E036E0C50D30FFB
:102D0000056E000E076E280E066E000E81EC0FF0A9
:102D1000A7EF16F00F500D6E0E6A0E50000AD8B4D1
:102D200094EF16F0A7EF16F00D50010AD8B44AEF51
:102D300016F0030AD8B45AEF16F0010AD8B46AEFB5
:102D400016F0070AD8B47AEF16F0A7EF16F01200C3
:102D5000000E0114096E000E02140A6E800E031498
:102D60000B6E7F0E04140C6E09500A100B100C1021
:102D7000D8A4BDEF16F0BFEF16F0C7EF16F0000EA7
:102D8000016E000E026E000E036E000E046E000E49
:102D90000514096E000E06140A6E800E07140B6EE1
:102DA0007F0E08140C6E09500A100B100C10D8A4DA
:102DB000DCEF16F0DEEF16F0E6EF16F0000E056E13
:102DC000000E066E000E076E000E086E055001180C
:102DD0000FE1065002180CE10750031809E10850F2
:102DE0000418D8B4F6EF16F0F8EF16F0FBEF16F073
:102DF000D890FCEF16F0D880120016BE02EF17F044
:102E000004EF17F00AEF17F015C01AF016C01BF008
:102E10000EEF17F0000E1B6E000E1A6E000E196EEC
:102E2000000E186E20EF17F0000E026E200E016EDD
:102E300011C003F012C004F07FEC15F0184A192AF3
:102E40001A50185C1950800A176E1B50800A1758C8
:102E5000D8A02DEF17F02FEF17F014EF17F013C0D5
:102E60000AF014C00BF011C00CF012C00DF06DECA4
:102E700018F01200160EF66E320EF76E000EF86E97
:102E800000EEDEF010EE0BF00900F5CFEEFFE5509E
:102E9000E150FAE1210EF66E320EF76E000EF86E7A
:102EA00000EE7AF010EE04F00900F5CFEEFFE550E9
:102EB000E150FAE101EE00F0500EEE6AE806FDE1A5
:102EC00000EEE9F0080EEE6AE806FDE1796A786A3C
:102ED000776A766A756A000EF86E000143EF13F0A8
:102EE00004BE7FEF17F004500310021006E1010446
:102EF000D8B07DEF17F07FEF17F09AEF17F001C011
:102F000005F002C006F003C007F004C008F0051E7B
:102F1000061E071E081E052A000E0622072208228A
:102F200005C001F006C002F007C003F008C004F0BD
:102F3000A2EF17F001C001F002C002F003C003F0DD
:102F400004C004F01200B9EF17F00DC0F6FF0EC078
:102F5000F7FFF86A050EF76403D00800F55005D0B6
:102F6000F6CFE1FFF7CFE2FFE750EEEC18F00D4AA5
:102F70000E2A0DC0F6FF0EC0F7FFF86A050EF764C3
:102F800003D00800F55005D0F6CFE1FFF7CFE2FF00
:102F9000E7500009D8A4CFEF17F0D1EF17F0A5EF55
:102FA00017F01200B60E676E000E686EB2C069F0C0
:102FB000B3C06AF0000E6D6E000E6C6E000E746E83
:102FC000000E736E690E0001AC6F000EAD6FB4C0E1
:102FD000AEF0B5C0AFF0670EB06F000EB16FFAEC97
:102FE00017F06C500001B225D96E6D50B321DA6E26
:102FF000DF6A1200AEC065F0AFC066F00EEF18F0E9
:10300000ACC056F0ADC057F0650E586E000E596E4C
:10301000B0C05AF0B1C05BF04FEC0EF065C0F6FFE7
:1030200066C0F7FF0800F5500009D8A41AEF18F0A1
:103030001CEF18F000EF18F0000E0001AD6F000E4D
:10304000AC6F120003C009F004C00AF001C007F021
:1030500002C008F03CEF18F009C0D9FF0AC0DAFF3F
:10306000DF500B6E094A0A2A07C0D9FF08C0DAFFF1
:103070000BC0DFFF074A082A0506D8A00606052868
:1030800006E10628D8A447EF18F049EF18F02CEF16
:1030900018F01200000E451A000E461A000E471ACC
:1030A000800E481A41C001F042C002F043C003F054
:1030B00044C004F045C005F046C006F047C007F024
:1030C00048C008F00DEC08F001C041F002C042F029
:1030D00003C043F004C044F01200000E106E000E56
:1030E0000F6E7EEF18F00EC001F0026A0CC003F004
:1030F0000DC004F07FEC15F00F4A102A0F500A247F
:10310000D96E10500B20DA6EDF500E6E0E50D8A420
:103110008CEF18F08EEF18F073EF18F0120003C068
:1031200005F004C006F001C007F002C008F005C0B9
:10313000F6FF06C0F7FF054A062A07C0D9FF08C0F8
:10314000DAFF074A082A0800F5CFDFFFDF50D8A4CE
:10315000ACEF18F0AEEF18F097EF18F01200015036
:10316000021003100410D8B4B8EF18F0BAEF18F03A
:10317000C2EF18F0000E011A000E021A000E031A18
:10318000800E041A01C001F002C002F003C003F077
:1031900004C004F0120001500302F3CF05F0F4CF95
:1031A00006F001500402F350062602500302F350C9
:1031B000062605C001F006C002F01200040EE82E3B
:1031C000FED70106D8A0020601500210D8A4EBEFEA
:1031D00018F0EDEF18F0DEEF18F012000C6E000E94
:1031E000046E000E036E0CC005F0000E076E2D0E6F
:1031F000066E010E81EC0FF01200000E046E000E40
:10320000036E010E056E070E076ED00E066E000EE1
:1032100081EC0FF012000302000000000C080F0EFA
:053220000D1C18141044
:02322600120094
:020000040030CA
:0E000000FF071F1EFF8385FF0FC00FE00F409C
:00000001FF
