:040000009FEF0BF073
:1006000000000450800B0D6E045004240F6E03AEE6
:100610000CEF03F00EEF03F00FEF03F00F800F501D
:10062000D8B415EF03F017EF03F02CEF03F00F2809
:10063000D8A41DEF03F01FEF03F027EF03F0000E27
:10064000016E000E026E000E036E000E046E038E2D
:10065000000E046E34EF03F0000E016E000E026E09
:10066000000E036E000E046E0850800B0E6E0D50CF
:100670000E18D8B43EEF03F040EF03F041EF03F063
:100680000D8C085008240E6E07AE49EF03F04BEFB7
:1006900003F04CEF03F00E800E50D8B452EF03F08D
:1006A00054EF03F069EF03F00E28D8A45AEF03F0DB
:1006B0005CEF03F064EF03F0000E056E000E066EB3
:1006C000000E076E000E086E078E000E086E71EFAA
:1006D00003F0000E056E000E066E000E076E000E93
:1006E000086E0F500E5CD8B078EF03F07AEF03F08D
:1006F000A1EF03F00DAC7FEF03F081EF03F083EF88
:1007000003F0800E0D1A0FC010F00EC00FF010C0D5
:100710000EF001C010F005C001F010C005F002C0DD
:1007200010F006C002F010C006F003C010F007C0C1
:1007300003F010C007F004C010F008C004F010C0AF
:1007400008F0000E106E0F500EC009F00A6A095E24
:10075000000E0A5A0ABEB6EF03F00A5009E11A0E5B
:10076000095CD8A0B6EF03F0B8EF03F0EFEF03F0A9
:100770000150021003100410D8A4C1EF03F0C4EF1D
:1007800003F0010EC5EF03F0000E106E000E016EB7
:10079000000E026E000E036E000E046E0EC00FF00F
:1007A000F8EF03F010A0D7EF03F0D9EF03F0DFEF7D
:1007B00003F0D89010300109106EE1EF03F0D890EB
:1007C000103201A0E6EF03F0E8EF03F0E9EF03F0E9
:1007D000108E043404320332023201320F2A0E50DA
:1007E0000F5CD8A0F6EF03F0F8EF03F0D2EF03F0C0
:1007F0000DBCFDEF03F0FFEF03F03FEF04F00F50EF
:10080000D8A405EF04F007EF04F011EF04F0000E98
:10081000016E000E026E000E036E000E046E60EF9D
:1008200005F0055001260650022207500322085009
:10083000042204A01EEF04F020EF04F0CCEF04F03B
:1008400010A025EF04F027EF04F02DEF04F0D8906E
:1008500010300109106E2FEF04F0D890103201A073
:1008600034EF04F036EF04F037EF04F0108E043468
:1008700004320332023201320F2ACCEF04F0055069
:10088000015C06500258075003580450800A096E54
:100890000850800A0958D8B050EF04F052EF04F025
:1008A0007DEF04F00150055C096E025006580A6E97
:1008B000035007580B6E045008580C6EFF0E0924A5
:1008C000016EFF0E0A20026EFF0E0B20036EFF0E5C
:1008D0000C20046E800E0D1A106C1050D8A473EF0B
:1008E00004F075EF04F085EF04F0010E0126000E10
:1008F00002220322042285EF04F00550015E065017
:10090000025A0750035A0850045A015002100310AB
:100910000410D8A48EEF04F090EF04F0C5EF04F0BB
:100920001050D8A496EF04F098EF04F0C5EF04F04F
:10093000000E016E000E026E000E036E000E046EBD
:1009400060EF05F0D890013602360336043610AE5B
:10095000ACEF04F0AEEF04F0AFEF04F0018010A0B4
:10096000B4EF04F0B6EF04F0BAEF04F0D88010361C
:10097000BCEF04F0D89010360F50D8B4C2EF04F09A
:10098000C4EF04F0C5EF04F00F0603AECAEF04F0A5
:10099000CCEF04F0A2EF04F0000E0E6E10AED3EF19
:1009A00004F0D5EF04F0EDEF04F010C009F07F0E75
:1009B0000916D8B4DEEF04F0E0EF04F0E4EF04F041
:1009C000010E0E6EEDEF04F001A0E9EF04F0EBEF85
:1009D00004F0EDEF04F0E0EF04F00E50D8B4F3EFC4
:1009E00004F0F5EF04F020EF05F0010E0126000EF3
:1009F00002220322042204A000EF05F002EF05F01A
:100A000020EF05F001C009F002C00AF003C00BF0AE
:100A100004C00CF00C340C320B320A32093209C01B
:100A200001F00AC002F00BC003F00CC004F00F2864
:100A3000D8B41DEF05F01FEF05F020EF05F00F2AE9
:100A40000F28D8B426EF05F028EF05F030EF05F0B9
:100A50000F50D8A42EEF05F030EF05F042EF05F06F
:100A6000000E016E000E026E000E036E000E046E8C
:100A70000F50D8A43EEF05F040EF05F042EF05F02F
:100A8000000E0D6E0FA047EF05F049EF05F04CEF9B
:100A900005F0038E4DEF05F0039ED8900F30046EE5
:100AA0000DAE55EF05F057EF05F058EF05F0048E49
:100AB00001C001F002C002F003C003F004C004F062
:100AC00012001C50800B256E1C501C242B6E1BAE7C
:100AD0006CEF05F06EEF05F06FEF05F02B802B50FB
:100AE000D8B475EF05F077EF05F08AEF05F02B2805
:100AF000D8A47DEF05F07FEF05F087EF05F0000E3D
:100B0000196E000E1A6E000E1B6E000E1C6E1B8EF0
:100B100092EF05F0000E196E000E1A6E000E1B6E9D
:100B2000000E1C6E2050800B251A205020242A6EA7
:100B30001FAE9DEF05F09FEF05F0A0EF05F02A80B6
:100B40002A50D8B4A6EF05F0A8EF05F0BBEF05F0EA
:100B50002A28D8A4AEEF05F0B0EF05F0B8EF05F005
:100B6000000E1D6E000E1E6E000E1F6E000E206E1B
:100B70001F8EC3EF05F0000E1D6E000E1E6E000EE0
:100B80001F6E000E206E2A50D8B4C9EF05F0CBEFCF
:100B900005F0D3EF05F02B50D8A4D1EF05F0D3EF3B
:100BA00005F0DDEF05F0000E196E000E1A6E000E56
:100BB0001B6E000E1C6E75EF07F01F501902F3CF6D
:100BC00030F0F4CF31F03050266E276A286A296A57
:100BD00031502C6E2D6A2E6A2F6A1E501A02F3CFE6
:100BE00030F0F4CF31F030502626000E2722282294
:100BF000292231502C26000E2D222E222F221D506C
:100C00001B02F3CF30F0F4CF31F030502626000E27
:100C100027222822292231502C26000E2D222E2276
:100C20002F2228C029F027C028F026C027F0266AE6
:100C30001D501A02F3CF30F0F4CF31F03050262699
:100C400031502722000E2822000E29221E501902A0
:100C5000F3CF30F0F4CF31F0305026263150272238
:100C6000000E2822000E292228C029F027C028F0D3
:100C700026C027F0266A1D501902F3CF30F0F4CFBA
:100C800031F03050262631502722000E2822000E47
:100C900029221F501A02F3CF30F0F4CF31F0305038
:100CA0002C2631502D22000E2E22000E2F221E50F7
:100CB0001B02F3CF30F0F4CF31F030502C263150FE
:100CC0002D22000E2E22000E2F221F501B02F3CFCA
:100CD00030F0F4CF31F03050216E3150226E236A63
:100CE000246A23C024F022C023F021C022F0216A0C
:100CF00021502C2622502D2223502E2224502F22E8
:100D000026C021F027C022F028C023F029C024F0FB
:100D1000190E90EF06F0D89024322332223221327D
:100D2000E82E8BEF06F021502C2622502D22235046
:100D30002E2224502F2228C029F027C028F026C0B8
:100D400027F0266A2A502BC021F0226A2126000EA5
:100D50002222820E2124306EFF0E2220316EC6EF39
:100D600006F0D8902C362D362E362F3629AEBBEF16
:100D700006F0BDEF06F0BEEF06F02C80D8902636C8
:100D80002736283629363006D8A031062EAECBEFCE
:100D900006F0CDEF06F0B1EF06F0000E2A6E29AE98
:100DA000D4EF06F0D6EF06F0FAEF06F0FF0E2614A9
:100DB000216EFF0E2714226EFF0E2814236E7F0E65
:100DC0002914246E2150221023102410D8B4EBEFE4
:100DD00006F0EDEF06F0F1EF06F0010E2A6EFAEFE5
:100DE00006F02CA0F6EF06F0F8EF06F0FAEF06F0AA
:100DF000EDEF06F02A50D8B400EF07F002EF07F04D
:100E000026EF07F0010E2C26000E2D222E222F2277
:100E10002FA00DEF07F00FEF07F026EF07F02CC023
:100E200021F02DC022F02EC023F02FC024F0243456
:100E3000243223322232213221C02CF022C02DF064
:100E400023C02EF024C02FF0304A312A31BE31EFBA
:100E500007F0315008E13028D8A031EF07F033EF28
:100E600007F03DEF07F0000E2C6E000E2D6E800E89
:100E70002E6E7F0E2F6E6BEF07F031BE4AEF07F03C
:100E8000315006E13004D8B048EF07F04AEF07F0E0
:100E900056EF07F0000E2C6E000E2D6E000E2E6E1B
:100EA000000E2F6E000E256E6BEF07F030C02BF09A
:100EB000FF0E2C16FF0E2D167F0E2E16000E2F166F
:100EC0002BA065EF07F067EF07F068EF07F02E8EB5
:100ED000D8902B302F6E25502F122CC019F02DC01A
:100EE0001AF02EC01BF02FC01CF012003550800BE2
:100EF000426E35503524496E34AE81EF07F083EFF2
:100F000007F084EF07F049804950D8B48AEF07F022
:100F10008CEF07F0A1EF07F04928D8A492EF07F073
:100F200094EF07F09CEF07F0000E326E000E336E68
:100F3000000E346E000E356E348E000E356EA9EF45
:100F400007F0000E326E000E336E000E346E000E8F
:100F5000356E3950800B421A395039244A6E38AEFA
:100F6000B4EF07F0B6EF07F0B7EF07F04A804A504A
:100F7000D8B4BDEF07F0BFEF07F0D4EF07F04A2871
:100F8000D8A4C5EF07F0C7EF07F0CFEF07F0000ECA
:100F9000366E000E376E000E386E000E396E388ECB
:100FA000000E396EDCEF07F0000E366E000E376E65
:100FB000000E386E000E396E36503710381039106A
:100FC000D8A4E5EF07F0E7EF07F0FFEF07F0000E1A
:100FD000326E000E336E000E346E000E356E800ED3
:100FE00034127F0E35124250351232C032F033C007
:100FF00033F034C034F035C035F042EF09F04950D9
:10100000D8A405EF08F007EF08F011EF08F0000E84
:10101000326E000E336E000E346E000E356E42EFEF
:1010200009F04A5049C03AF03B6A3A5E000E3B5A1A
:101030007F0E3A24436E000E3B20446E32C03EF0D9
:1010400033C03FF034C040F035C041F0000E326E86
:10105000000E336E000E346E000E356E000E456EBF
:10106000000E466E000E476E000E486E000E4A6E71
:1010700072EF08F04A50D8B440EF08F042EF08F0A1
:1010800059EF08F0D8903E363F3640364136D8907A
:10109000323633363436353648AE51EF08F053EF3A
:1010A00008F054EF08F03280D8904536463647367F
:1010B000483636503E5C37503F58385040583950CB
:1010C0004158D8A066EF08F068EF08F071EF08F01B
:1010D000488C36503E5E37503F5A3850405A39504F
:1010E000415A4A2A190E4A6478EF08F07AEF08F05C
:1010F0003AEF08F03E503F1040104110D8B483EF53
:1011000008F085EF08F09DEF08F045809DEF08F0AE
:10111000D890323633363436353648AE92EF08F052
:1011200094EF08F095EF08F03280D89045364636B7
:10113000473648364306D8A0440634AEA2EF08F03E
:10114000A4EF08F088EF08F0000E4A6E48AEABEF4F
:1011500008F0ADEF08F0D1EF08F0FF0E45143A6E3D
:10116000FF0E46143B6EFF0E47143C6E7F0E481474
:101170003D6E3A503B103C103D10D8B4C2EF08F021
:10118000C4EF08F0C8EF08F0010E4A6ED1EF08F086
:1011900032A0CDEF08F0CFEF08F0D1EF08F0C4EFA8
:1011A00008F04A50D8B4D7EF08F0D9EF08F0FDEFB7
:1011B00008F0010E3226000E33223422352235A0EB
:1011C000E4EF08F0E6EF08F0FDEF08F032C03AF087
:1011D00033C03BF034C03CF035C03DF03D343D32CF
:1011E0003C323B323A323AC032F03BC033F03CC082
:1011F00034F03DC035F0434A442A44BE08EF09F0BC
:10120000445008E14328D8A008EF09F00AEF09F09C
:1012100015EF09F0000E446E4368000E326E000EAA
:10122000336E000E346E000E356E44BE22EF09F0B0
:10123000445006E14304D8B020EF09F022EF09F052
:1012400030EF09F0000E446E000E436E000E326E59
:10125000000E336E000E346E000E356E000E426EC0
:1012600043C049F049A037EF09F039EF09F03CEFEE
:1012700009F0348E3DEF09F0349ED8904930356E38
:10128000F3EF07F01200096E0950D8B44AEF09F0E5
:101290004CEF09F06EEF09F004BE53EF09F051EF87
:1012A00009F06EEF09F001C005F002C006F003C0BE
:1012B00007F004C008F0051E061E071E081E052ABA
:1012C000000E06220722082205C00BF006C00CF013
:1012D00007C00DF008C00EF076EF09F001C00BF06A
:1012E00002C00CF003C00DF004C00EF0015002105B
:1012F00003100410D8A47FEF09F081EF09F08BEF01
:1013000009F0000E016E000E026E000E036E000E5C
:10131000046E1CEF0AF0960E0A6E95EF09F00A2A89
:10132000D8900E320D320C320B32000E0B14056EBB
:10133000000E0C14066E000E0D14076EFE0E0E1439
:10134000086E0550061007100810D8A4AAEF09F07F
:10135000ACEF09F08FEF09F0BAEF09F00A2A010E9D
:101360000B26000E0C220D220E22D8900E320D32CA
:101370000C320B32000E0B14056E000E0C14066EB0
:10138000000E0D14076EFF0E0E14086E05500610A9
:1013900007100810D8A4CFEF09F0D1EF09F0AEEF95
:1013A00009F0D9EF09F00A06D8900B360C360D3645
:1013B0000E360DBEDEEF09F0E0EF09F0E8EF09F0C0
:1013C000020E0A60E6EF09F0E8EF09F0D3EF09F04A
:1013D0000AB0EDEF09F0EFEF09F0F0EF09F00D9E24
:1013E000D8900A320AC005F0066A076A086A05C082
:1013F00008F0076A066A056A05500B1206500C12BF
:1014000007500D1208500E120950D8B40AEF0AF016
:101410000CEF0AF014EF0AF004BE13EF0AF011EF1C
:101420000AF014EF0AF00E8E0BC001F00CC002F0AF
:101430000DC003F00EC004F0120020EE63F010EEB9
:101440004FF0090EDBCFE3FFE806FCE2000E1D6E55
:10145000000E1E6EA00E1F6E400E206E4BC001F0DF
:101460004CC002F0036A046A000E43EC09F001C0AC
:1014700019F002C01AF003C01BF004C01CF061ECAC
:1014800005F019C032F01AC033F01BC034F01CC094
:1014900035F0000E366EC00E376E7F0E386E440E7D
:1014A000396E76EC07F032C05BF033C05CF034C0CC
:1014B0005DF035C05EF05BC032F05CC033F05DC003
:1014C00034F05EC035F0BDEC0AF032C05FF033C0DE
:1014D00060F0000E1D6E000E1E6E200E1F6E410E7F
:1014E000206E5FC001F060C002F0036A046A000E63
:1014F00043EC09F001C015F002C016F003C017F06C
:1015000004C018F05BC011F05CC012F05DC013F0B5
:101510005EC014F040EC0BF011C019F012C01AF0CC
:1015200013C01BF014C01CF061EC05F019C032F0C0
:101530001AC033F01BC034F01CC035F0BDEC0AF00B
:1015400032C059F033C05AF05F504F0FD96EDA6A8B
:10155000DF50836E59504F0FD96EDA6ADF50826EBA
:10156000070E4E6E170E4D6E6A0EE82EFED74D2EEC
:10157000FCD74E2EFAD700D01200343435343B6EEF
:101580003B50D8A4C6EF0AF0C8EF0AF0D2EF0AF039
:10159000000E326E000E336E000E346E000E356E8D
:1015A0003FEF0BF032C036F033C037F034C038F0C4
:1015B00035C039F0200EE2EF0AF0D89039323832D7
:1015C00037323632E82EDDEF0AF036503A6E348E7E
:1015D000FF0E3216FF0E3316FF0E3416000E3516B0
:1015E000960E3B5E3BBEF9EF0AF0F7EF0AF00FEF05
:1015F0000BF03B50800A970FD8B001EF0BF003EFD0
:101600000BF005EF0BF0C8EF0AF0D890353234320A
:10161000333232323B3E05EF0BF027EF0BF01F0E5B
:101620003B6415EF0BF017EF0BF01FEF0BF0C8EF5B
:101630000AF0D89032363336343635363B063B50D6
:10164000D8A425EF0BF027EF0BF019EF0BF03A5071
:10165000D8B42DEF0BF02FEF0BF037EF0BF0351E5A
:10166000341E331E326C000E33223422352232C037
:1016700032F033C033F034C034F035C035F01200EE
:10168000000E151A000E161A000E171A800E181AE0
:1016900011C001F012C002F013C003F014C004F036
:1016A00015C005F016C006F017C007F018C008F006
:1016B00001EC03F001C011F002C012F003C013F0FE
:1016C00004C014F01200056E05C003F0D890033674
:1016D000D8900336C250C30B0310C26E500EE82ED2
:1016E000FED7C282C2B277EF0BF079EF0BF072EF48
:1016F0000BF0C450046E036AC3500324016E000E45
:101700000420026E1200000E946E000E956E000E04
:10171000826E000E836E9280B2EC0BF0000E63ECD2
:101720000BF001C061F002C062F061C04BF062C01A
:101730004CF01DEC0AF08EEF0BF000EF00F0720E93
:10174000F66E170EF76E000EF86E00EE63F010EEF8
:101750000AF00900F5CFEEFFE550E150FAE1000193
:1017600083EF0BF0010EC26E0E0EC16EAA0EC06E9C
:0C17700012003F065B4F666D7D077F6F27
:020000040030CA
:0E000000FF071F1EFF8385FF0FC00FE00F409C
:00000001FF
