:040000008FEF07F087
:0506000000256400006C
:100606000A6E95949598959A959C959E9592959037
:100616000AB002D0839001D0838003B002D08392C7
:1006260001D0838203500410D8A41CEF03F01EEF00
:1006360003F099EF03F0086A05AE01D0082A0846D0
:10064600084683500818FB0B0818836E05C008F08F
:10065600060E096ED8900832092E2DEF03F0083ADF
:1006660083500818EF0B0818836E05C008F0050EB6
:10067600096ED8900832092E3CEF03F0083A084676
:1006860083500818DF0B0818836E05C008F0083A77
:100696000F0E0816083A0846084683500818BF0B7E
:1006A6000818836E838E000E026E020E016EF3EC46
:1006B60007F0839E05C008F0D8900832D89008321B
:1006C600D89008320846084683500818FB0B0818CD
:1006D600836E05C008F0D8900832D8900832083AE0
:1006E60083500818EF0B0818836E05C008F0D890E1
:1006F6000832083A084683500818DF0B0818836E3C
:1007060005B002D0839C01D0838C838E000E026ECE
:10071600020E016EF3EC07F0839E06C001F007C0DF
:1007260002F0F3EC07F0000E1AEF04F095849588BA
:10073600958A958C838E000E026E020E016EF3EC86
:1007460007F0000E83B4010E0B6E83B8ADEF03F015
:10075600B1EF03F0086A082AB2EF03F0086A0B50FB
:100766000B2408100B6E83BABBEF03F0BFEF03F048
:10077600086A082AC0EF03F0086A0B500B24081019
:100786000B6E83BCC9EF03F0CDEF03F0086A082AAD
:10079600CEEF03F0086A0B500B2408100B6E839EF5
:1007A600838E000E026E020E016EF3EC07F083B428
:1007B600DFEF03F0E3EF03F0086A082AE4EF03F043
:1007C600086A0B500B2408100B6E83B8EDEF03F08C
:1007D600F1EF03F0086A082AF2EF03F0086A0B50FB
:1007E6000B2408100B6E83BAFBEF03F0FFEF03F048
:1007F600086A082A00EF04F0086A0B500B24081058
:100806000B6E83BC09EF04F00DEF04F0086A082AAA
:100816000EEF04F0086A0B500B2408100B6E839E33
:1008260006C001F007C002F0F3EC07F00B5012000F
:100836000C50D96EDA6ADFCFF6FF060EF76E0800A7
:10084600F550250AD8A42AEF04F02CEF04F0E5EFC2
:1008560004F00C50D96EDA6ADF2A000E646E000EC0
:10086600636E63C067F0656866680C50D96EDA6AB5
:10087600DF50106E10C0F6FF060EF76E0800F5503A
:10088600640AD8B449EF04F04BEF04F059EF04F0D2
:1008960010C0F6FF060EF76E0800F550690AD8A4D8
:1008A60057EF04F059EF04F0DFEF04F00D50D96E66
:1008B600DA6A020EDF26DF5CD96EDA6ADECF11F065
:1008C600DECF12F00C50D96EDA6A1028DF6E200ED9
:1008D600156E12BE71EF04F074EF04F0010E75EFA1
:1008E60004F0000E0F6E15061550430FD96EDA6A26
:1008F60011C001F012C002F0000E046E0A0E036E63
:1009060081EC06F001C007F002C008F0C4EC07F065
:100916000750300FDF6E11C001F012C002F0000E5A
:10092600046E0A0E036EBEEC05F001C011F002C0A3
:1009360012F011501210D8B4A3EF04F0A5EF04F092
:10094600ADEF04F01550D8A4ABEF04F0ADEF04F012
:1009560076EF04F01550D8B4B3EF04F0B5EF04F019
:10096600D4EF04F00F50D8B4BBEF04F0BDEF04F0A1
:10097600D4EF04F015061550430FD96EDA6A2D0E22
:10098600DF6ED4EF04F01550430FD96EDA6ADF50EC
:100996000E6E0E50016E026A0BC003F0D9EC06F023
:1009A600152A200E1518D8A4DBEF04F0DDEF04F0AD
:1009B600C6EF04F0F6EF04F00C50D96EDA6ADF2ABF
:1009C600F6EF04F00C50D96EDA6ADFCFF6FF060EAA
:1009D600F76E0800F550016E026A0BC003F0D9EC01
:1009E60006F0DFEF04F012000F6E20EE68F010EE56
:1009F60010F0050EDBCFE3FFE806FCE20FC012F0B5
:100A06000CC013F00DC014F095949598959A959C8A
:100A1600959E9592959083908392839E4E0E026E3C
:100A2600200E016EF3EC07F0000E166E10C00EF0ED
:100A3600D8900E32D8900E32D8900E320E460E4610
:100A460083500E18FB0B0E18836E10C00EF0D89054
:100A56000E32D8900E320E3A83500E18EF0B0E1847
:100A6600836E10C00EF0D8900E320E3A0E468350AA
:100A76000E18DF0B0E18836E10B002D0839C01D0C7
:100A8600838C838E000E026E020E016EF3EC07F06D
:100A9600839E130E026E880E016EF3EC07F0162A83
:100AA600020E166459EF05F05BEF05F019EF05F03D
:100AB60011C00EF0D8900E32D8900E32D8900E3269
:100AC6000E460E4683500E18FB0B0E18836E11C091
:100AD6000EF0D8900E32D8900E320E3A83500E1881
:100AE600EF0B0E18836E11C00EF0D8900E320E3A30
:100AF6000E4683500E18DF0B0E18836E11B002D00F
:100B0600839C01D0838C838E000E026E020E016ED2
:100B1600F3EC07F0839E000E026E280E016EF3ECD6
:100B260007F0000E046E000E036E12C005F0000EF4
:100B3600076E280E066E000E03EC03F0000E046E20
:100B4600000E036E13C005F0000E076E280E066E2B
:100B5600000E03EC03F0000E046E000E036E14C0CC
:100B660005F0000E076E280E066E000E03EC03F06D
:100B760012EC08F01200000E066E04BEC7EF05F078
:100B8600C5EF05F0CDEF05F0036C041ED8B0042ABE
:100B9600010E066E02BED4EF05F0D2EF05F0DAEFD5
:100BA60005F0016C021ED8B0022A010E061A000ECC
:100BB600086E000E076E03500410D8B4E5EF05F07A
:100BC600E7EF05F00FEF06F0010E056EEFEF05F00B
:100BD600D89003360436052A04AEF4EF05F0F6EF96
:100BE60005F0EBEF05F0D890073608360350015CA8
:100BF60004500258D8A002EF06F004EF06F009EF01
:100C060006F00350015E0450025A0780D890043261
:100C16000332052EF6EF05F00650D8B415EF06F0B0
:100C260017EF06F01BEF06F0076C081ED8B0082A6F
:100C360007C001F008C002F012000F6E63EF06F065
:100C4600000E046E000E036E0C507F0F056E000E34
:100C5600076E280E066E000E03EC03F080EF06F01A
:100C6600000E046E000E036E0C50BF0F056E000ED4
:100C7600076E280E066E000E03EC03F080EF06F0FA
:100C8600000E046E000E036E0C50930F056E000EE0
:100C9600076E280E066E000E03EC03F080EF06F0DA
:100CA600000E046E000E036E0C50D30F056E000E80
:100CB600076E280E066E000E03EC03F080EF06F0BA
:100CC6000F500D6E0E6A0E50000AD8B46DEF06F086
:100CD60080EF06F00D50010AD8B423EF06F0030AA0
:100CE600D8B433EF06F0010AD8B443EF06F0070A8A
:100CF600D8B453EF06F080EF06F01200000E066E31
:100D060002BE8AEF06F088EF06F090EF06F0016C5F
:100D1600021ED8B0022A010E066E04BE97EF06F038
:100D260095EF06F09BEF06F0036C041ED8B0042A7C
:100D360003500410D8B4A2EF06F0A4EF06F0C8EFF3
:100D460006F0010E056EACEF06F0D89003360436B9
:100D5600052A04AEB1EF06F0B3EF06F0A8EF06F0F1
:100D66000350015C04500258D8A0BCEF06F0BEEF59
:100D760006F0C2EF06F00350015E0450025AD89006
:100D860004320332052EB3EF06F00650D8B4CEEF88
:100D960006F0D0EF06F0D4EF06F0016C021ED8B0D4
:100DA600022A01C001F002C002F012000350D8B4BA
:100DB600DFEF06F0E1EF06F0E9EF06F00350D8A406
:100DC600E7EF06F0E9EF06F0EEEF06F0015028EC4B
:100DD60008F02DEF07F00350D96EDA6A0A0ED9260D
:100DE600DE50DE10D8B4FAEF06F0FCEF06F015EF91
:100DF60007F00350D96EDA6A0A0ED9260350E16E5F
:100E0600E26A030EE126DE50E65CE650800A086ED2
:100E1600DE50800A0858D8B013EF07F015EF07F038
:100E26002DEF07F00350D96EDA6A030ED926DF508C
:100E3600046E0350D96EDA6ADF500424D96EDA6A7A
:100E460001C0DFFF0350D96EDA6A030ED926DE2A07
:100E5600000EDD221200000E956E000E836E0F0E40
:100E66000C6E060E0D6E280EF7EC04F0000E426EA8
:100E7600000E416E2D0E1A6E010E1B6E41C01CF047
:100E860042C01DF0AAEC07F0010E0C6E020E20EC1B
:100E960006F02D0E0D6EDEEC07F01F0E2C6E710E99
:100EA6002B6E1E0EE82EFED72B2EFCD72C2EFAD735
:100EB60000D0414A422A42BE6AEF07F0425009E199
:100EC6000A0E415CD8A06AEF07F06CEF07F03DEF21
:100ED60007F039EF07F000EF00F017C019F07CEFCC
:100EE60007F016C00BF0190E0C6E18C00DF01BECB7
:100EF60004F019C0F6FF060EF76E0800F55000095B
:100F0600D8A488EF07F08AEF07F074EF07F0000E19
:100F1600176E000E166E1200400EF66E100EF76E6D
:100F2600000EF86E00EE68F010EE0FF00900F5CF37
:100F3600EEFFE550E150FAE100EE43F0250EEE6AD1
:100F4600E806FDE1000EF86E00012EEF07F01C0E1C
:100F56001E6E1AC01FF0000E236E000E226E000ECB
:100F66002A6E000E296E1F0E166E1BC017F01E0E7F
:100F7600186E70EC07F01A502224D96EDA6ADF6A0E
:100F8600120008BEC9EF07F0CBEF07F0D1EF07F06C
:100F960007C007F008C008F0DDEF07F007C009F04A
:100FA60008C00AF0091E0A1E094A0A2A09C007F0E3
:100FB6000AC008F01200E7EF07F00D50D96EDA6AA2
:100FC600DF5003EC08F00D2A0D50D96EDA6ADF50B7
:100FD600D8A4F0EF07F0F2EF07F0E0EF07F0120009
:100FE600040EE82EFED70106D8A002060150021014
:100FF600D8A400EF08F002EF08F0F3EF07F01200B4
:101006000C6E000E046E000E036E0CC005F0000E92
:10101600076E2D0E066E010E03EC03F01200000E95
:10102600046E000E036E010E056E070E076ED00EDF
:10103600066E000E03EC03F012000302000000002F
:091046000C080F0E0D1C1814100B
:0210500012008C
:020000040030CA
:0E000000FF071F1EFF8385FF0FC00FE00F409C
:00000001FF
