:0400000008EF0AF00B
:1006000000253032643A253032643A2530326400B5
:0D0610004531335F72656C6F67696F0000E4
:10061E000A6E95949598959A959C959E959295901F
:10062E000AB002D0839001D0838003B002D08392AF
:10063E0001D0838203500410D8A428EF03F02AEFD0
:10064E0003F0A5EF03F0086A05AE01D0082A0846AC
:10065E00084683500818FB0B0818836E05C008F077
:10066E00060E096ED8900832092E39EF03F0083ABB
:10067E0083500818EF0B0818836E05C008F0050E9E
:10068E00096ED8900832092E48EF03F0083A084652
:10069E0083500818DF0B0818836E05C008F0083A5F
:1006AE000F0E0816083A0846084683500818BF0B66
:1006BE000818836E838E000E026E020E016E8DEC94
:1006CE000AF0839E05C008F0D8900832D890083200
:1006DE00D89008320846084683500818FB0B0818B5
:1006EE00836E05C008F0D8900832D8900832083AC8
:1006FE0083500818EF0B0818836E05C008F0D890C9
:10070E000832083A084683500818DF0B0818836E23
:10071E0005B002D0839C01D0838C838E000E026EB6
:10072E00020E016E8DEC0AF0839E06C001F007C02A
:10073E0002F08DEC0AF0000E26EF04F095849588F9
:10074E00958A958C838E000E026E020E016E8DECD4
:10075E000AF0000E83B4010E0B6E83B8B9EF03F0EE
:10076E00BDEF03F0086A082ABEEF03F0086A0B50CB
:10077E000B2408100B6E83BAC7EF03F0CBEF03F018
:10078E00086A082ACCEF03F0086A0B500B240810F5
:10079E000B6E83BCD5EF03F0D9EF03F0086A082A7D
:1007AE00DAEF03F0086A0B500B2408100B6E839ED1
:1007BE00838E000E026E020E016E8DEC0AF083B473
:1007CE00EBEF03F0EFEF03F0086A082AF0EF03F007
:1007DE00086A0B500B2408100B6E83B8F9EF03F068
:1007EE00FDEF03F0086A082AFEEF03F0086A0B50CB
:1007FE000B2408100B6E83BA07EF04F00BEF04F016
:10080E00086A082A0CEF04F0086A0B500B24081033
:10081E000B6E83BC15EF04F019EF04F0086A082A7A
:10082E001AEF04F0086A0B500B2408100B6E839E0F
:10083E0006C001F007C002F08DEC0AF00B5012005A
:10084E001FBE2CEF04F02FEF04F0010E30EF04F07A
:10085E00000E286E2850D8B437EF04F039EF04F0AC
:10086E003DEF04F01E6C1F1ED8B01F2A75BE42EF5E
:10087E0004F044EF04F045EF04F07C9275BE4CEFAB
:10088E0004F04AEF04F052EF04F0000E236E010E56
:10089E00226E56EF04F074C022F075C023F072C0C1
:1008AE0024F073C025F02850D8B460EF04F062EF46
:1008BE0004F079EF04F02406D8A025062850D8A419
:1008CE006BEF04F06DEF04F073EF04F0000E216E89
:1008DE002B0E206E77EF04F0000E216E2D0E206E83
:1008EE0020C028F0000E276E1F0E266E000E00018F
:1008FE009F6FB2EF04F02606D8A02706800E26249E
:10090E00D96E000E2720DA6E1EC001F01FC002F055
:10091E00000E046E0A0E036E43EC08F001C007F0E1
:10092E0002C008F029EC0AF00750300FDF6E2206E5
:10093E00D8A023062406D8A025061EC001F01FC08D
:10094E0002F0000E046E0A0E036E80EC07F001C07A
:10095E001EF002C01FF027BEBDEF04F0275008E1C5
:10096E002604D8A0BDEF04F0BFEF04F0E9EF04F0C9
:10097E001E501F10D8A4C6EF04F0C8EF04F082EF8B
:10098E0004F023BED5EF04F0235006E12204D8B0C4
:10099E00D3EF04F0D5EF04F082EF04F025BEE0EFC4
:1009AE0004F0255008E12404D8A0E0EF04F0E2EFB3
:1009BE0004F0E9EF04F07CB2E7EF04F0E9EF04F0A5
:1009CE0082EF04F02850D8B4EFEF04F0F1EF04F00A
:1009DE00FCEF04F02606D8A02706800E2624D96E3A
:1009EE00000E2720DA6E28C0DFFF1CC011F01DC0DC
:1009FE0012F0800E2624136E000E2720146E24C0D3
:100A0E0015F025C016F09BEC08F012002BC0D9FF94
:100A1E002CC0DAFFDECFF6FFDDCFF7FF0800F55072
:100A2E00250AD8A41DEF05F01FEF05F0DCEF05F049
:100A3E002BC0D9FF2CC0DAFFDE2A000EDD22000EFD
:100A4E00736E000E726E72C07CF074687568000E64
:100A5E00366E000E356E5EEF05F07C822BC0D9FF30
:100A6E002CC0DAFFDE2A000EDD225EEF05F0000E4E
:100A7E00366E010E356E5EEF05F02BC0D9FF2CC021
:100A8E00DAFFDECFF6FFDDCFF7FF0800F5502F6E51
:100A9E00306A3050000AD8B457EF05F03EEF05F03B
:100AAE002F50300AD8B434EF05F03EEF05F0355034
:100ABE003610D8B465EF05F067EF05F044EF05F09A
:100ACE002BC007F02CC008F02DC009F02EC00AF084
:100ADE001DEC07F007C072F008C073F073BE7CEF18
:100AEE0005F07AEF05F081EF05F07C80726C731ED5
:100AFE00D8B0732A2BC0D9FF2CC0DAFFDECF37F067
:100B0E00DDCF38F037C0F6FF38C0F7FF0800F550DC
:100B1E00640AD8B495EF05F097EF05F0A5EF05F050
:100B2E0037C0F6FF38C0F7FF0800F550690AD8A4A1
:100B3E00A3EF05F0A5EF05F0D3EF05F02DC0D9FF1B
:100B4E002EC0DAFFDFCF2FF0020EDE26DFCF30F021
:100B5E00000EDD222FC0D9FF30C0DAFFDECF31F01C
:100B6E00DDCF32F0010E37242F6E000E3820306E9E
:100B7E002BC0D9FF2CC0DAFF2FC0DEFF30C0DDFF47
:100B8E0029C01CF02AC01DF031C01EF032C01FF06B
:100B9E0027EC04F0F0EF05F02BC0D9FF2CC0DAFFE4
:100BAE00DE2A000EDD22F0EF05F02BC0D9FF2CC09F
:100BBE00DAFFDECFF6FFDDCFF7FF0800F550016E4E
:100BCE00026A29C003F02AC004F0B8EC06F0D3EF95
:100BDE0005F012000F6E20EE63F010EE10F0050E11
:100BEE00DBCFE3FFE806FCE20FC012F00CC013F0FF
:100BFE000DC014F095949598959A959C959E959206
:100C0E00959083908392839E4E0E026E200E016EFF
:100C1E008DEC0AF0000E166E10C00EF0D8900E324B
:100C2E00D8900E32D8900E320E460E4683500E18C5
:100C3E00FB0B0E18836E10C00EF0D8900E32D890AB
:100C4E000E320E3A83500E18EF0B0E18836E10C034
:100C5E000EF0D8900E320E3A0E4683500E18DF0B61
:100C6E000E18836E10B002D0839C01D0838C838EBD
:100C7E00000E026E020E016E8DEC0AF0839E130EB4
:100C8E00026E880E016E8DEC0AF0162A020E1664A4
:100C9E0053EF06F055EF06F013EF06F011C00EF00D
:100CAE00D8900E32D8900E32D8900E320E460E4696
:100CBE0083500E18FB0B0E18836E11C00EF0D890D9
:100CCE000E32D8900E320E3A83500E18EF0B0E18CD
:100CDE00836E11C00EF0D8900E320E3A0E4683502F
:100CEE000E18DF0B0E18836E11B002D0839C01D04C
:100CFE00838C838E000E026E020E016E8DEC0AF056
:100D0E00839E000E026E280E016E8DEC0AF0000E10
:100D1E00046E000E036E12C005F0000E076E280E54
:100D2E00066E000E0FEC03F0000E046E000E036E46
:100D3E0013C005F0000E076E280E066E000E0FECA7
:100D4E0003F0000E046E000E036E14C005F0000ECC
:100D5E00076E280E066E000E0FEC03F0ACEC0AF0D8
:100D6E00120003500410D8B4BFEF06F0C1EF06F026
:100D7E00CAEF06F003500410D8A4C8EF06F0CAEF6D
:100D8E0006F0CFEF06F00150C2EC0AF01CEF07F0B0
:100D9E0020EE0AF00350D9260450DA22DE50DE107F
:100DAE00D8B4DCEF06F0DEEF06F0F9EF06F020EE39
:100DBE000AF00350D9260450DA2210EE03F0035045
:100DCE00E1260450E222DE50E65CE650800A096E0F
:100DDE00DE50800A0958D8B0F7EF06F0F9EF06F0AA
:100DEE001CEF07F020EE03F00350D9260450DA2250
:100DFE00DECF05F0DDCF06F003C0D9FF04C0DAFF69
:100E0E00DECF07F0DDCF08F005500724D96E06506F
:100E1E000820DA6E01C0DFFF20EE03F00350D92662
:100E2E000450DA22DE2A000EDD221200000E0F6EB2
:100E3E00000E0E6E07C0D9FF08C0DAFFDECFF6FF38
:100E4E00DDCFF7FF0800F5502A0AD8A431EF07F0DE
:100E5E0033EF07F067EF07F007C0D9FF08C0DAFFDE
:100E6E00DE2A000EDD2209C0D9FF0AC0DAFFDFCF6D
:100E7E000BF0020EDE26DFCF0CF0000EDD220BC0D3
:100E8E00D9FF0CC0DAFFDECF0EF0DDCF0FF07BEF17
:100E9E0007F00EC001F00FC002F0000E046E0A0E35
:100EAE00036E7AEC0AF00D5001240E6E000E022035
:100EBE000F6E07C0D9FF08C0DAFFDE2A000EDD2252
:100ECE0007C0D9FF08C0DAFFDECFF6FFDDCFF7FF90
:100EDE000800F550D00F0D6E090E0D6479EF07F076
:100EEE007BEF07F050EF07F00EC007F00FC008F0D1
:100EFE001200000E066E04BE89EF07F087EF07F0B2
:100F0E008FEF07F0036C041ED8B0042A010E066E94
:100F1E0002BE96EF07F094EF07F09CEF07F0016C1E
:100F2E00021ED8B0022A010E061A000E086E000E1E
:100F3E00076E03500410D8B4A7EF07F0A9EF07F01F
:100F4E00D1EF07F0010E056EB1EF07F0D890033622
:100F5E000436052A04AEB6EF07F0B8EF07F0ADEF92
:100F6E0007F0D890073608360350015C045002583B
:100F7E00D8A0C4EF07F0C6EF07F0CBEF07F0035091
:100F8E00015E0450025A0780D89004320332052EB7
:100F9E00B8EF07F00650D8B4D7EF07F0D9EF07F047
:100FAE00DDEF07F0076C081ED8B0082A07C001F065
:100FBE0008C002F012000F6E25EF08F0000E046E4E
:100FCE00000E036E0C507F0F056E000E076E280E7E
:100FDE00066E000E0FEC03F042EF08F0000E046EEA
:100FEE00000E036E0C50BF0F056E000E076E280E1E
:100FFE00066E000E0FEC03F042EF08F0000E046ECA
:10100E00000E036E0C50930F056E000E076E280E29
:10101E00066E000E0FEC03F042EF08F0000E046EA9
:10102E00000E036E0C50D30F056E000E076E280EC9
:10103E00066E000E0FEC03F042EF08F00F500D6E2F
:10104E000E6A0E50000AD8B42FEF08F042EF08F0E7
:10105E000D50010AD8B4E5EF07F0030AD8B4F5EF46
:10106E0007F0010AD8B405EF08F0070AD8B415EF57
:10107E0008F042EF08F01200000E066E02BE4CEFB2
:10108E0008F04AEF08F052EF08F0016C021ED8B0DB
:10109E00022A010E066E04BE59EF08F057EF08F053
:1010AE005DEF08F0036C041ED8B0042A0350041040
:1010BE00D8B464EF08F066EF08F08AEF08F0010E7E
:1010CE00056E6EEF08F0D89003360436052A04AE8E
:1010DE0073EF08F075EF08F06AEF08F00350015C4B
:1010EE0004500258D8A07EEF08F080EF08F084EF8D
:1010FE0008F00350015E0450025AD89004320332B5
:10110E00052E75EF08F00650D8B490EF08F092EF68
:10111E0008F096EF08F0016C021ED8B0022A01C04A
:10112E0001F002C002F012007CA0A0EF08F0A2EFC6
:10113E0008F0ACEF08F013C00AF014C00BF011C0A9
:10114E000CF012C00DF0E6EC09F016BEB1EF08F08F
:10115E00B3EF08F0B9EF08F015C01AF016C01BF087
:10116E00BDEF08F0000E1B6E000E1A6E000E196E0B
:10117E00000E186ECFEF08F0000E026E200E016EFC
:10118E0011C003F012C004F0B8EC06F0184A192A88
:10119E001A50185C1950800A176E1B50800A175887
:1011AE00D8A0DCEF08F0DEEF08F0C3EF08F07CB05B
:1011BE00E3EF08F0E5EF08F0EFEF08F013C00AF0E8
:1011CE0014C00BF011C00CF012C00DF0E6EC09F0DB
:1011DE00120067EC0AF037EC09F09EA0F9EF08F068
:1011EE00FBEF08F0F2EF08F07A4A7B2A7B5009E118
:1011FE003C0E7A5CD8A006EF09F008EF09F02EEF4E
:10120E0009F0000E7B6E000E7A6E784A792A7950BC
:10121E0009E13C0E785CD8A017EF09F019EF09F040
:10122E002EEF09F0000E796E000E786E764A772A50
:10123E00775009E1180E765CD8A028EF09F02AEF56
:10124E0009F02EEF09F0000E776E000E766E9E906E
:10125E003C0ECF6EB00ECE6EF2EF08F000EF00F047
:10126E00000E49EC0AF0010E0C6E010EE2EC07F0D6
:10127E00100E0D6E060E0E6E6AEC09F0590E416ED2
:10128E00000E426E010E436E060E446E76C045F0A1
:10129E0077C046F078C047F079C048F07AC049F080
:1012AE007BC04AF0C0EC09F0000E49EC0AF0010ECA
:1012BE000C6E020EE2EC07F0590E0D6E000E0E6E65
:1012CE006AEC09F0120080EF09F00DC0F6FF0EC0B7
:1012DE00F7FFF86A050EF76403D00800F55005D045
:1012EE00F6CFE1FFF7CFE2FFE7509DEC0AF00D4A93
:1012FE000E2A0DC0F6FF0EC0F7FFF86A050EF76452
:10130E0003D00800F55005D0F6CFE1FFF7CFE2FF8E
:10131E00E7500009D8A496EF09F098EF09F06CEFAA
:10132E0009F012003BC03FF03CC040F0ADEF09F0B9
:10133E0039C029F03AC02AF03F0E2B6E000E2C6EEB
:10134E003DC02DF03EC02EF00DEC05F03FC0F6FF77
:10135E0040C0F7FF0800F5500009D8A4B9EF09F016
:10136E00BBEF09F09FEF09F0000E3A6E000E396EDA
:10137E001200450E4B6E000E4C6E41C04DF042C039
:10138E004EF0000E516E000E506E000E586E000E96
:10139E00576E4D0E396E000E3A6E43C03BF044C090
:1013AE003CF04B0E3D6E000E3E6E99EC09F0505027
:1013BE004124D96E51504220DA6EDF6A1200000EBF
:1013CE00106E000E0F6EF7EF09F00EC001F0026AFC
:1013DE000CC003F00DC004F0B8EC06F00F4A102A52
:1013EE000F500A24D96E10500B20DA6EDF500E6E9D
:1013FE000E50D8A405EF0AF007EF0AF0ECEF09F053
:10140E001200740EF66E150EF76E000EF86E00EEEC
:10141E0063F010EE0FF00900F5CFEEFFE550E1504E
:10142E00FAE100EE80F0200EEE6AE806FDE100EE35
:10143E0072F00B0EEE6AE806FDE1000EF86E00018A
:10144E00F0EF08F008BE36EF0AF0085006E1070488
:10145E00D8B034EF0AF036EF0AF044EF0AF007C0C6
:10146E0009F008C00AF0091E0A1E094A0A2A09C014
:10147E0007F00AC008F048EF0AF007C007F008C0EE
:10148E0008F01200116E20EE69F010EE0CF0040E52
:10149E00DBCFE3FFE806FCE2000E046E000E036EE7
:1014AE000C0E1124D96EDA6A000EDA22DF50056EA8
:1014BE00000E076E280E066E000E0FEC03F01200E3
:1014CE00000E956E000E836E0F0E0C6E060E0D6ED8
:1014DE00280EF1EC05F0B30ECD6E3C0ECF6EB00EB5
:1014EE00CE6E9E90120001500302F3CF05F0F4CFA2
:1014FE0006F001500402F350062602500302F35088
:10150E00062605C001F006C002F01200040EE82EF9
:10151E00FED70106D8A0020601500210D8A49AEFF9
:10152E000AF09CEF0AF08DEF0AF012000C6E000E1E
:10153E00046E000E036E0CC005F0000E076E2D0E2D
:10154E00066E010E0FEC03F01200000E046E000E7C
:10155E00036E010E056E070E076ED00E066E000EA0
:10156E000FEC03F012000302000000000C080F0E37
:05157E000D1C18141003
:02158400120053
:020000040030CA
:0E000000FF071F1EFF8385FF0FC00FE00F409C
:00000001FF
