:04000000DFEF09F035
:10060000004531325F736567756E646F7300253026
:10061000326400000A6E95949598959A959C959EE3
:10062000959295900AB002D0839001D0838003B058
:1006300002D0839201D0838203500410D8A423EF08
:1006400003F025EF03F0A0EF03F0086A05AE01D038
:10065000082A0846084683500818FB0B0818836EC2
:1006600005C008F0060E096ED8900832092E34EF46
:1006700003F0083A83500818EF0B0818836E05C082
:1006800008F0050E096ED8900832092E43EF03F0EA
:10069000083A084683500818DF0B0818836E05C017
:1006A00008F0083A0F0E0816083A08460846835024
:1006B0000818BF0B0818836E838E000E026E020EA0
:1006C000016E65EC0AF0839E05C008F0D8900832F0
:1006D000D8900832D8900832084608468350081847
:1006E000FB0B0818836E05C008F0D8900832D8902C
:1006F0000832083A83500818EF0B0818836E05C0BB
:1007000008F0D8900832083A084683500818DF0BE2
:100710000818836E05B002D0839C01D0838C838E31
:10072000000E026E020E016E65EC0AF0839E06C09A
:1007300001F007C002F065EC0AF0000E21EF04F0B2
:1007400095849588958A958C838E000E026E020E94
:10075000016E65EC0AF0000E83B4010E0B6E83B8D7
:10076000B4EF03F0B8EF03F0086A082AB9EF03F01A
:10077000086A0B500B2408100B6E83BAC2EF03F00B
:10078000C6EF03F0086A082AC7EF03F0086A0B50A7
:100790000B2408100B6E83BCD0EF03F0D4EF03F0F2
:1007A000086A082AD5EF03F0086A0B500B240810DA
:1007B0000B6E839E838E000E026E020E016E65EC40
:1007C0000AF083B4E6EF03F0EAEF03F0086A082AC0
:1007D000EBEF03F0086A0B500B2408100B6E83B884
:1007E000F4EF03F0F8EF03F0086A082AF9EF03F0DA
:1007F000086A0B500B2408100B6E83BA02EF04F04A
:1008000006EF04F0086A082A07EF04F0086A0B50A4
:100810000B2408100B6E83BC10EF04F014EF04F0EF
:10082000086A082A15EF04F0086A0B500B24081018
:100830000B6E839E06C001F007C002F065EC0AF063
:100840000B5012001FBE27EF04F02AEF04F0010E38
:100850002BEF04F0000E286E2850D8B432EF04F0CD
:1008600034EF04F038EF04F01E6C1F1ED8B01F2ABE
:100870006DBE3DEF04F03FEF04F040EF04F06E92E8
:100880006DBE47EF04F045EF04F04DEF04F0000EAD
:10089000236E010E226E51EF04F06CC022F06DC089
:1008A00023F06AC024F06BC025F02850D8B45BEF69
:1008B00004F05DEF04F074EF04F02406D8A02506E0
:1008C0002850D8A466EF04F068EF04F06EEF04F04F
:1008D000000E216E2B0E206E72EF04F0000E216EC2
:1008E0002D0E206E20C028F0000E276E1F0E266EE3
:1008F000000E00019F6FADEF04F02606D8A027067A
:10090000800E2624D96E000E2720DA6E1EC001F05C
:100910001FC002F0000E046E0A0E036E3EEC08F0DB
:1009200001C007F002C008F000EC0AF00750300FD9
:10093000DF6E2206D8A023062406D8A025061EC0F6
:1009400001F01FC002F0000E046E0A0E036E7BEC75
:1009500007F001C01EF002C01FF027BEB8EF04F080
:10096000275008E12604D8A0B8EF04F0BAEF04F04D
:10097000E4EF04F01E501F10D8A4C1EF04F0C3EF41
:1009800004F07DEF04F023BED0EF04F0235006E125
:100990002204D8B0CEEF04F0D0EF04F07DEF04F0E5
:1009A00025BEDBEF04F0255008E12404D8A0DBEFDE
:1009B00004F0DDEF04F0E4EF04F06EB2E2EF04F0D7
:1009C000E4EF04F07DEF04F02850D8B4EAEF04F02F
:1009D000ECEF04F0F7EF04F02606D8A02706800E0F
:1009E0002624D96E000E2720DA6E28C0DFFF1CC037
:1009F00011F01DC012F0800E2624136E000E272069
:100A0000146E24C015F025C016F096EC08F0120004
:100A10002BC0D9FF2CC0DAFFDECFF6FFDDCFF7FF0A
:100A20000800F550250AD8A418EF05F01AEF05F0D4
:100A3000D7EF05F02BC0D9FF2CC0DAFFDE2A000E5D
:100A4000DD22000E6B6E000E6A6E6AC06EF06C687E
:100A50006D68000E366E000E356E59EF05F06E8231
:100A60002BC0D9FF2CC0DAFFDE2A000EDD2259EFA1
:100A700005F0000E366E010E356E59EF05F02BC0F5
:100A8000D9FF2CC0DAFFDECFF6FFDDCFF7FF08007D
:100A9000F5502F6E306A3050000AD8B452EF05F08E
:100AA00039EF05F02F50300AD8B42FEF05F039EFA9
:100AB00005F035503610D8B460EF05F062EF05F060
:100AC0003FEF05F02BC007F02CC008F02DC009F057
:100AD0002EC00AF018EC07F007C06AF008C06BF0EF
:100AE0006BBE77EF05F075EF05F07CEF05F06E80DB
:100AF0006A6C6B1ED8B06B2A2BC0D9FF2CC0DAFFF2
:100B0000DECF37F0DDCF38F037C0F6FF38C0F7FF63
:100B10000800F550640AD8B490EF05F092EF05F0A4
:100B2000A0EF05F037C0F6FF38C0F7FF0800F5501A
:100B3000690AD8A49EEF05F0A0EF05F0CEEF05F00E
:100B40002DC0D9FF2EC0DAFFDFCF2FF0020EDE2638
:100B5000DFCF30F0000EDD222FC0D9FF30C0DAFF2A
:100B6000DECF31F0DDCF32F0010E37242F6E000ED4
:100B70003820306E2BC0D9FF2CC0DAFF2FC0DEFF2B
:100B800030C0DDFF29C01CF02AC01DF031C01EF0AE
:100B900032C01FF022EC04F0EBEF05F02BC0D9FFC0
:100BA0002CC0DAFFDE2A000EDD22EBEF05F02BC0B1
:100BB000D9FF2CC0DAFFDECFF6FFDDCFF7FF08004C
:100BC000F550016E026A29C003F02AC004F0B3ECAC
:100BD00006F0CEEF05F012000F6E20EE5BF010EE87
:100BE00010F0050EDBCFE3FFE806FCE20FC012F0C9
:100BF0000CC013F00DC014F095949598959A959C9F
:100C0000959E9592959083908392839E4E0E026E50
:100C1000200E016E65EC0AF0000E166E10C00EF08C
:100C2000D8900E32D8900E32D8900E320E460E4624
:100C300083500E18FB0B0E18836E10C00EF0D89068
:100C40000E32D8900E320E3A83500E18EF0B0E185B
:100C5000836E10C00EF0D8900E320E3A0E468350BE
:100C60000E18DF0B0E18836E10B002D0839C01D0DB
:100C7000838C838E000E026E020E016E65EC0AF00C
:100C8000839E130E026E880E016E65EC0AF0162A22
:100C9000020E16644EEF06F050EF06F00EEF06F06F
:100CA00011C00EF0D8900E32D8900E32D8900E327D
:100CB0000E460E4683500E18FB0B0E18836E11C0A5
:100CC0000EF0D8900E32D8900E320E3A83500E1895
:100CD000EF0B0E18836E11C00EF0D8900E320E3A44
:100CE0000E4683500E18DF0B0E18836E11B002D023
:100CF000839C01D0838C838E000E026E020E016EE7
:100D000065EC0AF0839E000E026E280E016E65EC03
:100D10000AF0000E046E000E036E12C005F0000E05
:100D2000076E280E066E000E0AEC03F0000E046E2D
:100D3000000E036E13C005F0000E076E280E066E3F
:100D4000000E0AEC03F0000E046E000E036E14C0D9
:100D500005F0000E076E280E066E000E0AEC03F07A
:100D600084EC0AF0120003500410D8B4BAEF06F075
:100D7000BCEF06F0C5EF06F003500410D8A4C3EF93
:100D800006F0C5EF06F0CAEF06F001509AEC0AF043
:100D900017EF07F020EE0AF00350D9260450DA22AC
:100DA000DE50DE10D8B4D7EF06F0D9EF06F0F4EF3E
:100DB00006F020EE0AF00350D9260450DA2210EE95
:100DC00003F00350E1260450E222DE50E65CE650D8
:100DD000800A096EDE50800A0958D8B0F2EF06F09A
:100DE000F4EF06F017EF07F020EE03F00350D926DA
:100DF0000450DA22DECF05F0DDCF06F003C0D9FFC4
:100E000004C0DAFFDECF07F0DDCF08F0055007247D
:100E1000D96E06500820DA6E01C0DFFF20EE03F025
:100E20000350D9260450DA22DE2A000EDD221200F9
:100E3000000E0F6E000E0E6E07C0D9FF08C0DAFF5D
:100E4000DECFF6FFDDCFF7FF0800F5502A0AD8A461
:100E50002CEF07F02EEF07F062EF07F007C0D9FF85
:100E600008C0DAFFDE2A000EDD2209C0D9FF0AC061
:100E7000DAFFDFCF0BF0020EDE26DFCF0CF0000E24
:100E8000DD220BC0D9FF0CC0DAFFDECF0EF0DDCFC4
:100E90000FF076EF07F00EC001F00FC002F0000E69
:100EA000046E0A0E036E52EC0AF00D5001240E6E11
:100EB000000E02200F6E07C0D9FF08C0DAFFDE2A3D
:100EC000000EDD2207C0D9FF08C0DAFFDECFF6FF33
:100ED000DDCFF7FF0800F550D00F0D6E090E0D6441
:100EE00074EF07F076EF07F04BEF07F00EC007F056
:100EF0000FC008F01200000E066E04BE84EF07F06B
:100F000082EF07F08AEF07F0036C041ED8B0042AC2
:100F1000010E066E02BE91EF07F08FEF07F097EF1C
:100F200007F0016C021ED8B0022A010E061A000E4C
:100F3000086E000E076E03500410D8B4A2EF07F03D
:100F4000A4EF07F0CCEF07F0010E056EACEF07F051
:100F5000D89003360436052A04AEB1EF07F0B3EF9C
:100F600007F0A8EF07F0D890073608360350015C69
:100F700004500258D8A0BFEF07F0C1EF07F0C6EF4A
:100F800007F00350015E0450025A0780D8900432E3
:100F90000332052EB3EF07F00650D8B4D2EF07F0B6
:100FA000D4EF07F0D8EF07F0076C081ED8B0082A76
:100FB00007C001F008C002F012000F6E20EF08F029
:100FC000000E046E000E036E0C507F0F056E000EB7
:100FD000076E280E066E000E0AEC03F03DEF08F0D7
:100FE000000E046E000E036E0C50BF0F056E000E57
:100FF000076E280E066E000E0AEC03F03DEF08F0B7
:10100000000E046E000E036E0C50930F056E000E62
:10101000076E280E066E000E0AEC03F03DEF08F096
:10102000000E046E000E036E0C50D30F056E000E02
:10103000076E280E066E000E0AEC03F03DEF08F076
:101040000F500D6E0E6A0E50000AD8B42AEF08F049
:101050003DEF08F00D50010AD8B4E0EF07F0030AA5
:10106000D8B4F0EF07F0010AD8B400EF08F0070A8F
:10107000D8B410EF08F03DEF08F01200000E066E35
:1010800002BE47EF08F045EF08F04DEF08F0016CA5
:10109000021ED8B0022A010E066E04BE54EF08F0FC
:1010A00052EF08F058EF08F0036C041ED8B0042A81
:1010B00003500410D8B45FEF08F061EF08F085EF3B
:1010C00008F0010E056E69EF08F0D890033604367B
:1010D000052A04AE6EEF08F070EF08F065EF08F037
:1010E0000350015C04500258D8A079EF08F07BEF60
:1010F00008F07FEF08F00350015E0450025AD890C8
:1011000004320332052E70EF08F00650D8B48BEF8E
:1011100008F08DEF08F091EF08F0016C021ED8B0D6
:10112000022A01C001F002C002F012006EA09BEF83
:1011300008F09DEF08F0A7EF08F013C00AF014C004
:101140000BF011C00CF012C00DF0BDEC09F016BE92
:10115000ACEF08F0AEEF08F0B4EF08F015C01AF0ED
:1011600016C01BF0B8EF08F0000E1B6E000E1A6ED2
:10117000000E196E000E186ECAEF08F0000E026E17
:10118000200E016E11C003F012C004F0B3EC06F0A3
:10119000184A192A1A50185C1950800A176E1B50E9
:1011A000800A1758D8A0D7EF08F0D9EF08F0BEEFA3
:1011B00008F06EB0DEEF08F0E0EF08F0EAEF08F0BC
:1011C00013C00AF014C00BF011C00CF012C00DF0E7
:1011D000BDEC09F0120001EF09F00DC0F6FF0EC0E2
:1011E000F7FFF86A050EF76403D00800F55005D044
:1011F000F6CFE1FFF7CFE2FFE75075EC0AF00D4ABA
:101200000E2A0DC0F6FF0EC0F7FFF86A050EF76450
:1012100003D00800F55005D0F6CFE1FFF7CFE2FF8D
:10122000E7500009D8A417EF09F019EF09F0EDEF26
:1012300008F012003EEC0AF06F5045EC09F09EA059
:1012400024EF09F026EF09F01CEF09F06F2A3B0E9E
:101250006F642DEF09F02FEF09F031EF09F0000E68
:101260006F6E9E903C0ECF6EB00ECE6E3D0E5A6EDF
:10127000E10E596E400EE82EFED7592EFCD75A2E9D
:10128000FAD71CEF09F000EF00F0586E000E20ECCA
:101290000AF0010E0C6E010EDDEC07F0010E0D6E72
:1012A000060E0E6EEBEC08F0000E20EC0AF0550E68
:1012B000416E000E426E0E0E436E060E446E58C016
:1012C00045F0466A97EC09F0010E0C6E020EDDEC5B
:1012D00007F0550E0D6E000E0E6EEBEC08F01200CE
:1012E0003BC03FF03CC040F084EF09F039C029F02A
:1012F0003AC02AF03F0E2B6E000E2C6E3DC02DF032
:101300003EC02EF008EC05F03FC0F6FF40C0F7FFEE
:101310000800F5500009D8A490EF09F092EF09F009
:1013200076EF09F0000E3A6E000E396E1200450E8F
:10133000476E000E486E41C049F042C04AF0000EB0
:101340004D6E000E4C6E000E546E000E536E490E24
:10135000396E000E3A6E43C03BF044C03CF0470E7D
:101360003D6E000E3E6E70EC09F04C504124D96E7B
:101370004D504220DA6EDF6A1200000E106E000E31
:101380000F6ECEEF09F00EC001F0026A0CC003F040
:101390000DC004F0B3EC06F00F4A102A0F500A24D7
:1013A000D96E10500B20DA6EDF500E6E0E50D8A49E
:1013B000DCEF09F0DEEF09F0C3EF09F01200240EB4
:1013C000F66E150EF76E000EF86E00EE5BF010EE86
:1013D0000FF00900F5CFEEFFE550E150FAE100EE25
:1013E00080F0200EEE6AE806FDE16F6A6E6A6D6AB3
:1013F0006C6A6B6A6A6A000EF86E00011AEF09F0F7
:1014000008BE0DEF0AF0085006E10704D8B00BEF54
:101410000AF00DEF0AF01BEF0AF007C009F008C050
:101420000AF0091E0A1E094A0A2A09C007F00AC062
:1014300008F01FEF0AF007C007F008C008F012001C
:10144000116E20EE61F010EE0CF0040EDBCFE3FF26
:10145000E806FCE2000E046E000E036E0C0E112472
:10146000D96EDA6A000EDA22DF50056E000E076EC2
:10147000280E066E000E0AEC03F01200000E956EA8
:10148000000E836E0F0E0C6E060E0D6E280EECEC29
:1014900005F0B30ECD6E3C0ECF6EB00ECE6E9E90AC
:1014A000CD80120001500302F3CF05F0F4CF06F017
:1014B00001500402F350062602500302F3500626A0
:1014C00005C001F006C002F01200040EE82EFED79F
:1014D0000106D8A0020601500210D8A472EF0AF04B
:1014E00074EF0AF065EF0AF012000C6E000E046E45
:1014F000000E036E0CC005F0000E076E2D0E066E7A
:10150000010E0AEC03F01200000E046E000E036ED2
:10151000010E056E070E076ED00E066E000E0AEC69
:1015200003F012000302000000000C080F0E0D1C57
:031530001814107C
:021534001200A3
:020000040030CA
:0E000000FF071F1EFF8385FF0FC00FE00F409C
:00000001FF
