:0400000007EF00F016
:0A0008007E8259ED09F0FDEF07F0CC
:0B06000000636F6E743A202564000058
:10060C000A6E95949598959A959C959E9592959031
:10061C000AB002D0839001D0838003B002D08392C1
:10062C0001D0838203500410D8A41FEF03F021EFF4
:10063C0003F09CEF03F0086A05AE01D0082A0846C7
:10064C00084683500818FB0B0818836E05C008F089
:10065C00060E096ED8900832092E30EF03F0083AD6
:10066C0083500818EF0B0818836E05C008F0050EB0
:10067C00096ED8900832092E3FEF03F0083A08466D
:10068C0083500818DF0B0818836E05C008F0083A71
:10069C000F0E0816083A0846084683500818BF0B78
:1006AC000818836E838E000E026E020E016E2CEC07
:1006BC0009F0839E05C008F0D8900832D890083213
:1006CC00D89008320846084683500818FB0B0818C7
:1006DC00836E05C008F0D8900832D8900832083ADA
:1006EC0083500818EF0B0818836E05C008F0D890DB
:1006FC000832083A084683500818DF0B0818836E36
:10070C0005B002D0839C01D0838C838E000E026EC8
:10071C00020E016E2CEC09F0839E06C001F007C09E
:10072C0002F02CEC09F0000E1DEF04F09584958876
:10073C00958A958C838E000E026E020E016E2CEC47
:10074C0009F0000E83B4010E0B6E83B8B0EF03F00A
:10075C00B4EF03F0086A082AB5EF03F0086A0B50EF
:10076C000B2408100B6E83BABEEF03F0C2EF03F03C
:10077C00086A082AC3EF03F0086A0B500B24081010
:10078C000B6E83BCCCEF03F0D0EF03F0086A082AA1
:10079C00D1EF03F0086A0B500B2408100B6E839EEC
:1007AC00838E000E026E020E016E2CEC09F083B4E7
:1007BC00E2EF03F0E6EF03F0086A082AE7EF03F034
:1007CC00086A0B500B2408100B6E83B8F0EF03F083
:1007DC00F4EF03F0086A082AF5EF03F0086A0B50EF
:1007EC000B2408100B6E83BAFEEF03F002EF04F03B
:1007FC00086A082A03EF04F0086A0B500B2408104F
:10080C000B6E83BC0CEF04F010EF04F0086A082A9E
:10081C0011EF04F0086A0B500B2408100B6E839E2A
:10082C0006C001F007C002F02CEC09F00B501200CE
:10083C001FBE23EF04F026EF04F0010E27EF04F0A7
:10084C00000E286E2850D8B42EEF04F030EF04F0D0
:10085C0034EF04F01E6C1F1ED8B01F2A78BE3BEF7D
:10086C0004F039EF04F041EF04F0000E236E010E9A
:10087C00226E45EF04F077C022F078C023F075C0EB
:10088C0024F076C025F02850D8B44FEF04F051EF87
:10089C0004F068EF04F02406D8A025062850D8A44C
:1008AC005AEF04F05CEF04F062EF04F0000E216EDE
:1008BC002B0E206E66EF04F0000E216E2D0E206EB6
:1008CC0020C028F0000E276E1F0E266E000E0001B1
:1008DC009F6FA1EF04F02606D8A02706800E2624D1
:1008EC00D96E000E2720DA6E1EC001F01FC002F078
:1008FC00000E046E0A0E036E68EC07F001C007F0E0
:10090C0002C008F0C4EC08F00750300FDF6E22066E
:10091C00D8A023062406D8A025061EC001F01FC0AF
:10092C0002F0000E046E0A0E036EA5EC06F001C078
:10093C001EF002C01FF027BEACEF04F0275008E1F8
:10094C002604D8A0ACEF04F0AEEF04F0C4EF04F032
:10095C001E501F10D8A4B5EF04F0B7EF04F071EFE0
:10096C0004F023BEC4EF04F0235006E12204D8B0F7
:10097C00C2EF04F0C4EF04F071EF04F02850D8B4C7
:10098C00CAEF04F0CCEF04F0D7EF04F02606D8A0A1
:10099C002706800E2624D96E000E2720DA6E28C07A
:1009AC00DFFF1CC011F01DC012F0800E2624136E48
:1009BC00000E2720146E24C015F025C016F0C0ECD4
:1009CC0007F012000F6E20EEA0F010EE10F0050EE6
:1009DC00DBCFE3FFE806FCE20FC012F00CC013F013
:1009EC000DC014F095949598959A959C959E95921A
:1009FC00959083908392839E4E0E026E200E016E14
:100A0C002CEC09F0000E166E10C00EF0D8900E32C1
:100A1C00D8900E32D8900E320E460E4683500E18D9
:100A2C00FB0B0E18836E10C00EF0D8900E32D890BF
:100A3C000E320E3A83500E18EF0B0E18836E10C048
:100A4C000EF0D8900E320E3A0E4683500E18DF0B75
:100A5C000E18836E10B002D0839C01D0838C838ED1
:100A6C00000E026E020E016E2CEC09F0839E130E2A
:100A7C00026E880E016E2CEC09F0162A020E16641A
:100A8C004AEF05F04CEF05F00AEF05F011C00EF03F
:100A9C00D8900E32D8900E32D8900E320E460E46AA
:100AAC0083500E18FB0B0E18836E11C00EF0D890ED
:100ABC000E32D8900E320E3A83500E18EF0B0E18E1
:100ACC00836E11C00EF0D8900E320E3A0E46835043
:100ADC000E18DF0B0E18836E11B002D0839C01D060
:100AEC00838C838E000E026E020E016E2CEC09F0CC
:100AFC00839E000E026E280E016E2CEC09F0000E87
:100B0C00046E000E036E12C005F0000E076E280E68
:100B1C00066E000E06EC03F0000E046E000E036E63
:100B2C0013C005F0000E076E280E066E000E06ECC4
:100B3C0003F0000E046E000E036E14C005F0000EE0
:100B4C00076E280E066E000E06EC03F04BEC09F057
:100B5C0012002BC0D9FF2CC0DAFFDECFF6FFDDCFA1
:100B6C00F7FF0800F550250AD8A4BFEF05F0C1EF38
:100B7C0005F02BEF06F02BC0D9FF2CC0DAFFDE2AD4
:100B8C00000EDD22000E766E000E756E75C07BF0C9
:100B9C00776878682BC0D9FF2CC0DAFFDECF35F030
:100BAC00DDCF36F035C0F6FF36C0F7FF0800F55044
:100BBC00640AD8B4E4EF05F0E6EF05F0F4EF05F0C5
:100BCC0035C0F6FF36C0F7FF0800F550690AD8A407
:100BDC00F2EF05F0F4EF05F022EF06F02DC0D9FF8F
:100BEC002EC0DAFFDFCF2FF0020EDE26DFCF30F083
:100BFC00000EDD222FC0D9FF30C0DAFFDECF31F07E
:100C0C00DDCF32F0010E35242F6E000E3620306E03
:100C1C002BC0D9FF2CC0DAFF2FC0DEFF30C0DDFFA8
:100C2C0029C01CF02AC01DF031C01EF032C01FF0CC
:100C3C001EEC04F03FEF06F02BC0D9FF2CC0DAFFFE
:100C4C00DE2A000EDD223FEF06F02BC0D9FF2CC0B0
:100C5C00DAFFDECFF6FFDDCFF7FF0800F550016EAF
:100C6C00026A29C003F02AC004F040EC06F022EF1F
:100C7C0006F0120003500410D8B447EF06F049EF09
:100C8C0006F052EF06F003500410D8A450EF06F013
:100C9C0052EF06F057EF06F001507AEC09F0A4EF92
:100CAC0006F020EE0AF00350D9260450DA22DE506A
:100CBC00DE10D8B464EF06F066EF06F081EF06F0B4
:100CCC0020EE0AF00350D9260450DA2210EE03F07D
:100CDC000350E1260450E222DE50E65CE650800A26
:100CEC00096EDE50800A0958D8B07FEF06F081EF0C
:100CFC0006F0A4EF06F020EE03F00350D9260450C2
:100D0C00DA22DECF05F0DDCF06F003C0D9FF04C038
:100D1C00DAFFDECF07F0DDCF08F005500724D96EDF
:100D2C0006500820DA6E01C0DFFF20EE03F00350FE
:100D3C00D9260450DA22DE2A000EDD221200000E23
:100D4C00066E04BEAEEF06F0ACEF06F0B4EF06F0A4
:100D5C00036C041ED8B0042A010E066E02BEBBEF53
:100D6C0006F0B9EF06F0C1EF06F0016C021ED8B028
:100D7C00022A010E061A000E086E000E076E0350B2
:100D8C000410D8B4CCEF06F0CEEF06F0F6EF06F078
:100D9C00010E056ED6EF06F0D89003360436052A00
:100DAC0004AEDBEF06F0DDEF06F0D2EF06F0D890E4
:100DBC00073608360350015C04500258D8A0E9EFFE
:100DCC0006F0EBEF06F0F0EF06F00350015E045076
:100DDC00025A0780D89004320332052EDDEF06F05C
:100DEC000650D8B4FCEF06F0FEEF06F002EF07F069
:100DFC00076C081ED8B0082A07C001F008C002F022
:100E0C0012000F6E4AEF07F0000E046E000E036E18
:100E1C000C507F0F056E000E076E280E066E000E2E
:100E2C0006EC03F067EF07F0000E046E000E036E85
:100E3C000C50BF0F056E000E076E280E066E000ECE
:100E4C0006EC03F067EF07F0000E046E000E036E65
:100E5C000C50930F056E000E076E280E066E000EDA
:100E6C0006EC03F067EF07F0000E046E000E036E45
:100E7C000C50D30F056E000E076E280E066E000E7A
:100E8C0006EC03F067EF07F00F500D6E0E6A0E5074
:100E9C00000AD8B454EF07F067EF07F00D50010AC1
:100EAC00D8B40AEF07F0030AD8B41AEF07F0010A16
:100EBC00D8B42AEF07F0070AD8B43AEF07F067EF77
:100ECC0007F01200000E066E02BE71EF07F06FEF16
:100EDC0007F077EF07F0016C021ED8B0022A010E62
:100EEC00066E04BE7EEF07F07CEF07F082EF07F092
:100EFC00036C041ED8B0042A03500410D8B489EF34
:100F0C0007F08BEF07F0AFEF07F0010E056E93EFD4
:100F1C0007F0D89003360436052A04AE98EF07F094
:100F2C009AEF07F08FEF07F00350015C0450025862
:100F3C00D8A0A3EF07F0A5EF07F0A9EF07F0035037
:100F4C00015E0450025AD89004320332052E9AEFF7
:100F5C0007F00650D8B4B5EF07F0B7EF07F0BBEFCA
:100F6C0007F0016C021ED8B0022A01C001F002C0C9
:100F7C0002F0120016BEC5EF07F0C7EF07F0CDEF79
:100F8C0007F015C01AF016C01BF0D1EF07F0000ED9
:100F9C001B6E000E1A6E000E196E000E186EE3EF2B
:100FAC0007F0000E026E200E016E11C003F012C08D
:100FBC0004F040EC06F0184A192A1A50185C195023
:100FCC00800A176E1B50800A1758D8A0F0EF07F054
:100FDC00F2EF07F0D7EF07F013C00AF014C00BF0D4
:100FEC0011C00CF012C00DF0A2EC08F01200E40ECF
:100FFC00F66E120EF76E000EF86E00EEA0F010EE0C
:10100C000DF00900F5CFEEFFE550E150FAE1F10EDD
:10101C00F66E120EF76E000EF86E0900F5CF7CF02E
:10102C000900F5CF7DF000EE80F0200EEE6AE806A8
:10103C00FDE100EE75F0070EEE6AE806FDE17E902C
:10104C007E92000EF86E000166EF09F0570E3F6EAF
:10105C00000E406E010E416E060E426E53C043F000
:10106C0054C044F07CEC08F0000EE4EC08F0010EE7
:10107C000C6E010E07EC07F0570E0D6E000E0E6E87
:10108C0002EC09F0070E566E170E556E6A0EE82E1E
:10109C00FED7552EFCD7562EFAD700D0120039C0E9
:1010AC003DF03AC03EF069EF08F037C029F038C087
:1010BC002AF03D0E2B6E000E2C6E3BC02DF03CC06A
:1010CC002EF0AFEC05F03DC0F6FF3EC0F7FF080078
:1010DC00F5500009D8A475EF08F077EF08F05BEF36
:1010EC0008F0000E386E000E376E1200430E456E7F
:1010FC00000E466E3FC047F040C048F0000E4B6EED
:10110C00000E4A6E000E526E000E516E470E376E78
:10111C00000E386E41C039F042C03AF0450E3B6EBD
:10112C00000E3C6E55EC08F04A503F24D96E4B50E3
:10113C004020DA6EDF6A1200000E106E000E0F6E89
:10114C00B3EF08F00EC001F0026A0CC003F00DC042
:10115C0004F040EC06F00F4A102A0F500A24D96E06
:10116C0010500B20DA6EDF500E6E0E50D8A4C1EF6B
:10117C0008F0C3EF08F0A8EF08F0120008BED1EF9A
:10118C0008F0085006E10704D8B0CFEF08F0D1EF13
:10119C0008F0DFEF08F007C009F008C00AF0091EDC
:1011AC000A1E094A0A2A09C007F00AC008F0E3EF30
:1011BC0008F007C007F008C008F01200116E20EE0E
:1011CC00A6F010EE0CF0040EDBCFE3FFE806FCE219
:1011DC00000E046E000E036E0C0E1124D96EDA6A2A
:1011EC00000EDA22DF50056E000E076E280E066E1A
:1011FC00000E06EC03F012000DEF09F00DC0D9FF44
:10120C000EC0DAFFDF503CEC09F00D4A0E2A0DC07F
:10121C00D9FF0EC0DAFFDF50D8A417EF09F019EF91
:10122C0009F004EF09F01200F28EF286F290F18EC2
:10123C00F180800E936E000E956E83680F0E0C6E0F
:10124C00060E0D6E280EE8EC04F01200040EE82ECB
:10125C00FED70106D8A0020601500210D8A439EF1F
:10126C0009F03BEF09F02CEF09F012000C6E000EA8
:10127C00046E000E036E0CC005F0000E076E2D0EF2
:10128C00066E010E06EC03F01200000E046E000E4A
:10129C00036E010E056E070E076ED00E066E000E65
:1012AC0006EC03F012000600F2A05FEF09F061EF0C
:1012BC0009F064EF09F0F290794A7A2A7E921100D3
:1012CC001AEC09F079C053F07AC054F02CEC08F009
:1012DC0068EF09F007EF00F00302000000000C08B3
:0712EC000F0E0D1C18141079
:0212F4001200E6
:020000040030CA
:0E000000FF071F1EFF8385FF0FC00FE00F409C
:00000001FF
